{
  "contractName": "Locker",
  "abi": [
    {
      "inputs": [
        {
          "internalType": "uint256",
          "name": "targetTimestamp",
          "type": "uint256"
        },
        {
          "internalType": "address",
          "name": "tokenContract",
          "type": "address"
        },
        {
          "internalType": "uint256",
          "name": "tokenCount",
          "type": "uint256"
        }
      ],
      "name": "lock",
      "outputs": [
        {
          "internalType": "uint256",
          "name": "",
          "type": "uint256"
        }
      ],
      "stateMutability": "nonpayable",
      "type": "function"
    },
    {
      "inputs": [
        {
          "internalType": "uint256",
          "name": "targetTimestamp",
          "type": "uint256"
        }
      ],
      "name": "lockNativeCurrency",
      "outputs": [],
      "stateMutability": "payable",
      "type": "function"
    },
    {
      "inputs": [
        {
          "internalType": "uint256",
          "name": "vaultId",
          "type": "uint256"
        }
      ],
      "name": "claimByVaultId",
      "outputs": [
        {
          "internalType": "bool",
          "name": "",
          "type": "bool"
        }
      ],
      "stateMutability": "payable",
      "type": "function"
    },
    {
      "inputs": [
        {
          "internalType": "address",
          "name": "userAddress",
          "type": "address"
        }
      ],
      "name": "getUserVaults",
      "outputs": [
        {
          "components": [
            {
              "components": [
                {
                  "internalType": "address",
                  "name": "tokenAddress",
                  "type": "address"
                },
                {
                  "internalType": "bool",
                  "name": "nativeToken",
                  "type": "bool"
                },
                {
                  "components": [
                    {
                      "internalType": "uint256",
                      "name": "tokensCount",
                      "type": "uint256"
                    },
                    {
                      "internalType": "uint256",
                      "name": "releaseTargetTimestamp",
                      "type": "uint256"
                    },
                    {
                      "internalType": "bool",
                      "name": "claimed",
                      "type": "bool"
                    }
                  ],
                  "internalType": "struct Locker.ReleaseCheckpoint[]",
                  "name": "checkpoints",
                  "type": "tuple[]"
                }
              ],
              "internalType": "struct Locker.VestedTokenVault[]",
              "name": "userVaults",
              "type": "tuple[]"
            }
          ],
          "internalType": "struct Locker.UserLocks",
          "name": "",
          "type": "tuple"
        }
      ],
      "stateMutability": "view",
      "type": "function"
    }
  ],
  "bytecode": "0x608060405234801561001057600080fd5b50611738806100206000396000f3fe60806040526004361061003f5760003560e01c80631e5e285c14610044578063aefaa39714610074578063cf27cfc414610090578063e7f3c69c146100cd575b600080fd5b61005e60048036038101906100599190610ec4565b61010a565b60405161006b91906112c9565b60405180910390f35b61008e60048036038101906100899190610ec4565b6104e5565b005b34801561009c57600080fd5b506100b760048036038101906100b29190610eed565b6107ab565b6040516100c49190611406565b60405180910390f35b3480156100d957600080fd5b506100f460048036038101906100ef9190610e72565b610c6a565b60405161010191906113e4565b60405180910390f35b60008082101561014f576040517f08c379a000000000000000000000000000000000000000000000000000000000815260040161014690611304565b60405180910390fd5b60008060003373ffffffffffffffffffffffffffffffffffffffff1673ffffffffffffffffffffffffffffffffffffffff16815260200190815260200160002060000183815481106101ca577f4e487b7100000000000000000000000000000000000000000000000000000000600052603260045260246000fd5b90600052602060002090600202019050600081600101600081548110610219577f4e487b7100000000000000000000000000000000000000000000000000000000600052603260045260246000fd5b90600052602060002090600302019050600015158160020160009054906101000a900460ff16151514610281576040517f08c379a000000000000000000000000000000000000000000000000000000000815260040161027890611364565b60405180910390fd5b42816001015411156102c8576040517f08c379a00000000000000000000000000000000000000000000000000000000081526004016102bf90611324565b60405180910390fd5b8160000160149054906101000a900460ff161561039c573373ffffffffffffffffffffffffffffffffffffffff166108fc83600101600081548110610336577f4e487b7100000000000000000000000000000000000000000000000000000000600052603260045260246000fd5b9060005260206000209060030201600001549081150290604051600060405180830381858888f19350505050158015610373573d6000803e3d6000fd5b5060018160020160006101000a81548160ff0219169083151502179055506001925050506104e0565b8160000160009054906101000a900473ffffffffffffffffffffffffffffffffffffffff1673ffffffffffffffffffffffffffffffffffffffff1663a9059cbb3383600001546040518363ffffffff1660e01b81526004016103ff9291906112a0565b602060405180830381600087803b15801561041957600080fd5b505af192505050801561044a57506040513d601f19601f820116820180604052508101906104479190610e9b565b60015b6104bb573d806000811461047a576040519150601f19603f3d011682016040523d82523d6000602084013e61047f565b606091505b506040517f08c379a00000000000000000000000000000000000000000000000000000000081526004016104b2906112e4565b60405180910390fd5b60018260020160006101000a81548160ff021916908315150217905550600193505050505b919050565b428111610527576040517f08c379a000000000000000000000000000000000000000000000000000000000815260040161051e906113a4565b60405180910390fd5b6000803373ffffffffffffffffffffffffffffffffffffffff1673ffffffffffffffffffffffffffffffffffffffff16815260200190815260200160002060000160018160018154018082558091505003906000526020600020905050600060016000803373ffffffffffffffffffffffffffffffffffffffff1673ffffffffffffffffffffffffffffffffffffffff168152602001908152602001600020600001805490506105d791906114a4565b90506000803373ffffffffffffffffffffffffffffffffffffffff1673ffffffffffffffffffffffffffffffffffffffff1681526020019081526020016000206000018181548110610652577f4e487b7100000000000000000000000000000000000000000000000000000000600052603260045260246000fd5b90600052602060002090600202016001016001816001815401808255809150500390600052602060002090505060008060003373ffffffffffffffffffffffffffffffffffffffff1673ffffffffffffffffffffffffffffffffffffffff16815260200190815260200160002060000182815481106106fa577f4e487b7100000000000000000000000000000000000000000000000000000000600052603260045260246000fd5b90600052602060002090600202019050600081600101600081548110610749577f4e487b7100000000000000000000000000000000000000000000000000000000600052603260045260246000fd5b9060005260206000209060030201905060018260000160146101000a81548160ff02191690831515021790555034816000018190555083816001018190555060008160020160006101000a81548160ff02191690831515021790555050505050565b60004284116107ef576040517f08c379a00000000000000000000000000000000000000000000000000000000081526004016107e6906113a4565b60405180910390fd5b60008211610832576040517f08c379a0000000000000000000000000000000000000000000000000000000008152600401610829906113c4565b60405180910390fd5b600073ffffffffffffffffffffffffffffffffffffffff168373ffffffffffffffffffffffffffffffffffffffff1614156108a2576040517f08c379a000000000000000000000000000000000000000000000000000000000815260040161089990611344565b60405180910390fd5b6000803373ffffffffffffffffffffffffffffffffffffffff1673ffffffffffffffffffffffffffffffffffffffff16815260200190815260200160002060000160018160018154018082558091505003906000526020600020905050600060016000803373ffffffffffffffffffffffffffffffffffffffff1673ffffffffffffffffffffffffffffffffffffffff1681526020019081526020016000206000018054905061095291906114a4565b90506000803373ffffffffffffffffffffffffffffffffffffffff1673ffffffffffffffffffffffffffffffffffffffff16815260200190815260200160002060000181815481106109cd577f4e487b7100000000000000000000000000000000000000000000000000000000600052603260045260246000fd5b90600052602060002090600202016001016001816001815401808255809150500390600052602060002090505060008060003373ffffffffffffffffffffffffffffffffffffffff1673ffffffffffffffffffffffffffffffffffffffff1681526020019081526020016000206000018281548110610a75577f4e487b7100000000000000000000000000000000000000000000000000000000600052603260045260246000fd5b90600052602060002090600202019050600081600101600081548110610ac4577f4e487b7100000000000000000000000000000000000000000000000000000000600052603260045260246000fd5b90600052602060002090600302019050858260000160006101000a81548173ffffffffffffffffffffffffffffffffffffffff021916908373ffffffffffffffffffffffffffffffffffffffff16021790555060008260000160146101000a81548160ff02191690831515021790555084816000018190555086816001018190555060008160020160006101000a81548160ff0219169083151502179055508573ffffffffffffffffffffffffffffffffffffffff166323b872dd3330886040518463ffffffff1660e01b8152600401610ba093929190611269565b602060405180830381600087803b158015610bba57600080fd5b505af1925050508015610beb57506040513d601f19601f82011682018060405250810190610be89190610e9b565b60015b610c5c573d8060008114610c1b576040519150601f19603f3d011682016040523d82523d6000602084013e610c20565b606091505b506040517f08c379a0000000000000000000000000000000000000000000000000000000008152600401610c5390611384565b60405180910390fd5b839450505050509392505050565b610c72610e20565b6000808373ffffffffffffffffffffffffffffffffffffffff1673ffffffffffffffffffffffffffffffffffffffff16815260200190815260200160002060405180602001604052908160008201805480602002602001604051908101604052809291908181526020016000905b82821015610e1157838290600052602060002090600202016040518060600160405290816000820160009054906101000a900473ffffffffffffffffffffffffffffffffffffffff1673ffffffffffffffffffffffffffffffffffffffff1673ffffffffffffffffffffffffffffffffffffffff1681526020016000820160149054906101000a900460ff1615151515815260200160018201805480602002602001604051908101604052809291908181526020016000905b82821015610dfa578382906000526020600020906003020160405180606001604052908160008201548152602001600182015481526020016002820160009054906101000a900460ff16151515158152505081526020019060010190610d99565b505050508152505081526020019060010190610ce0565b50505050815250509050919050565b6040518060200160405280606081525090565b600081359050610e42816116bd565b92915050565b600081519050610e57816116d4565b92915050565b600081359050610e6c816116eb565b92915050565b600060208284031215610e8457600080fd5b6000610e9284828501610e33565b91505092915050565b600060208284031215610ead57600080fd5b6000610ebb84828501610e48565b91505092915050565b600060208284031215610ed657600080fd5b6000610ee484828501610e5d565b91505092915050565b600080600060608486031215610f0257600080fd5b6000610f1086828701610e5d565b9350506020610f2186828701610e33565b9250506040610f3286828701610e5d565b9150509250925092565b6000610f48838361118f565b60608301905092915050565b6000610f6083836111fb565b905092915050565b610f71816114d8565b82525050565b610f80816114d8565b82525050565b6000610f9182611441565b610f9b8185611471565b9350610fa683611421565b8060005b83811015610fd7578151610fbe8882610f3c565b9750610fc983611457565b925050600181019050610faa565b5085935050505092915050565b6000610fef8261144c565b610ff98185611482565b93508360208202850161100b85611431565b8060005b8581101561104757848403895281516110288582610f54565b945061103383611464565b925060208a0199505060018101905061100f565b50829750879550505050505092915050565b611062816114ea565b82525050565b611071816114ea565b82525050565b6000611084600e83611493565b915061108f8261154f565b602082019050919050565b60006110a7601a83611493565b91506110b282611578565b602082019050919050565b60006110ca601f83611493565b91506110d5826115a1565b602082019050919050565b60006110ed601683611493565b91506110f8826115ca565b602082019050919050565b6000611110600f83611493565b915061111b826115f3565b602082019050919050565b6000611133601283611493565b915061113e8261161c565b602082019050919050565b6000611156601983611493565b915061116182611645565b602082019050919050565b6000611179602383611493565b91506111848261166e565b604082019050919050565b6060820160008201516111a5600085018261124b565b5060208201516111b8602085018261124b565b5060408201516111cb6040850182611059565b50505050565b600060208301600083015184820360008601526111ee8282610fe4565b9150508091505092915050565b60006060830160008301516112136000860182610f68565b5060208301516112266020860182611059565b506040830151848203604086015261123e8282610f86565b9150508091505092915050565b61125481611516565b82525050565b61126381611516565b82525050565b600060608201905061127e6000830186610f77565b61128b6020830185610f77565b611298604083018461125a565b949350505050565b60006040820190506112b56000830185610f77565b6112c2602083018461125a565b9392505050565b60006020820190506112de6000830184611068565b92915050565b600060208201905081810360008301526112fd81611077565b9050919050565b6000602082019050818103600083015261131d8161109a565b9050919050565b6000602082019050818103600083015261133d816110bd565b9050919050565b6000602082019050818103600083015261135d816110e0565b9050919050565b6000602082019050818103600083015261137d81611103565b9050919050565b6000602082019050818103600083015261139d81611126565b9050919050565b600060208201905081810360008301526113bd81611149565b9050919050565b600060208201905081810360008301526113dd8161116c565b9050919050565b600060208201905081810360008301526113fe81846111d1565b905092915050565b600060208201905061141b600083018461125a565b92915050565b6000819050602082019050919050565b6000819050602082019050919050565b600081519050919050565b600081519050919050565b6000602082019050919050565b6000602082019050919050565b600082825260208201905092915050565b600082825260208201905092915050565b600082825260208201905092915050565b60006114af82611516565b91506114ba83611516565b9250828210156114cd576114cc611520565b5b828203905092915050565b60006114e3826114f6565b9050919050565b60008115159050919050565b600073ffffffffffffffffffffffffffffffffffffffff82169050919050565b6000819050919050565b7f4e487b7100000000000000000000000000000000000000000000000000000000600052601160045260246000fd5b7f5472616e73666572206572726f72000000000000000000000000000000000000600082015250565b7f7661756c7449642073686f756c6420626520706f736974697665000000000000600082015250565b7f43616e6e6f7420636c61696d206265666f726520746172676574206461746500600082015250565b7f546f6b656e20636f6e7472616374206973206e756c6c00000000000000000000600082015250565b7f416c726561647920636c61696d65640000000000000000000000000000000000600082015250565b7f4e6f7420616e20455243323020746f6b656e0000000000000000000000000000600082015250565b7f4461746520696e2074686520706173742073656c656374656400000000000000600082015250565b7f546f6b656e20636f756e74206d75737420626520706f736974697665206e756d60008201527f6265720000000000000000000000000000000000000000000000000000000000602082015250565b6116c6816114d8565b81146116d157600080fd5b50565b6116dd816114ea565b81146116e857600080fd5b50565b6116f481611516565b81146116ff57600080fd5b5056fea2646970667358221220f84cb2d1da801b62149ce72dd5a69358840b7d029d0aaff3a4d65a66d271c0f164736f6c63430008010033",
  "immutableReferences": {},
  "source": "// SPDX-License-Identifier: MIT\n\npragma solidity >=0.7.0 <0.9.0;\n\nimport \"@openzeppelin/contracts/token/ERC20/ERC20.sol\";\nimport \"@openzeppelin/contracts/utils/math/SafeMath.sol\";\n\ncontract Locker {\n    using SafeMath for uint256;\n\n    struct ReleaseCheckpoint {\n        uint256 tokensCount;\n        uint256 releaseTargetTimestamp;\n        bool claimed;\n    }\n\n    struct VestedTokenVault {\n        address tokenAddress;\n        //ETH for ethereum, BNB for BSC, AVAX for AVA c-chain\n        bool nativeToken;\n        ReleaseCheckpoint[] checkpoints;\n    }\n\n    struct UserLocks {\n        VestedTokenVault[] userVaults;\n    }\n\n    //every user has multiple vaults: he can store any token with different release schedules.\n    //Token might be duplicated, e.g. \n    //Vault1: USDC with 6 months lock + Vault2: USDC with 12 months lock + Vault3: DAI with custom schedule\n    mapping(address => UserLocks) userLocks;\n\n    function lock(\n        uint256 targetTimestamp,\n        address tokenContract,\n        uint256 tokenCount\n    ) public returns (uint256) {\n        require(targetTimestamp > block.timestamp, \"Date in the past selected\");\n        require(tokenCount > 0, \"Token count must be positive number\");\n        require(tokenContract != address(0), \"Token contract is null\");\n\n        //push new element to user's vault and get it's index\n        userLocks[msg.sender].userVaults.push();\n        uint256 vaultIndex = userLocks[msg.sender].userVaults.length - 1;\n\n        //create release checkpoint to created vault\n        userLocks[msg.sender].userVaults[vaultIndex].checkpoints.push();\n\n        //get created user Vault by index\n        VestedTokenVault storage targetVault = userLocks[msg.sender].userVaults[\n            vaultIndex\n        ];\n\n        //get checkpoint, in this this case here will be only one element\n        ReleaseCheckpoint storage checkpoint = targetVault.checkpoints[0];\n\n        //fill input data\n        targetVault.tokenAddress = tokenContract;\n        targetVault.nativeToken = false;\n        checkpoint.tokensCount = tokenCount;\n        checkpoint.releaseTargetTimestamp = targetTimestamp;\n        checkpoint.claimed = false;\n\n        //transfer token to vault\n        try\n            IERC20(tokenContract).transferFrom(\n                msg.sender,\n                address(this),\n                tokenCount\n            )\n        returns (bool) {\n            return vaultIndex;\n        } catch (bytes memory) {\n            revert(\"Not an ERC20 token\");\n        }\n    }\n\n    function lockNativeCurrency(uint256 targetTimestamp) public payable {\n        require(targetTimestamp > block.timestamp, \"Date in the past selected\");\n\n        //push new element to user's vault and get it's index\n        userLocks[msg.sender].userVaults.push();\n        uint256 vaultIndex = userLocks[msg.sender].userVaults.length - 1;\n\n        //create release checkpoint to created vault\n        userLocks[msg.sender].userVaults[vaultIndex].checkpoints.push();\n\n        //get created user Vault by index\n        VestedTokenVault storage targetVault = userLocks[msg.sender].userVaults[\n            vaultIndex\n        ];\n\n        //get checkpoint, in this this case here will be only one element\n        ReleaseCheckpoint storage checkpoint = targetVault.checkpoints[0];\n\n        targetVault.nativeToken = true;\n        checkpoint.tokensCount = msg.value;\n        checkpoint.releaseTargetTimestamp = targetTimestamp;\n        checkpoint.claimed = false;\n    }\n\n    // function lockWithLinearRelease(\n    //     uint256 targetBlockRelease,\n    //     address tokenContract,\n    //     uint256 tokenCount,\n    //     int16 checkpoints\n    // ) public {}\n\n    // function lockWithScheduledRelease(\n    //     address tokenContract,\n    //     bytes32[] memory checkpoints\n    // ) public {}\n\n    // function claimAll() public {}\n\n    // function claimToken(address token) public {}\n\n    function claimByVaultId(uint256 vaultId) public payable returns (bool) {\n        require(vaultId >= 0, \"vaultId should be positive\");\n\n        VestedTokenVault storage vault = userLocks[msg.sender].userVaults[\n            vaultId\n        ];\n        ReleaseCheckpoint storage checkpoint = vault.checkpoints[0];\n\n        require(checkpoint.claimed == false, \"Already claimed\");\n        require(\n            checkpoint.releaseTargetTimestamp <= block.timestamp,\n            \"Cannot claim before target date\"\n        );\n\n        if (vault.nativeToken) {\n            payable(msg.sender).transfer(\n                vault.checkpoints[0].tokensCount\n            );\n            checkpoint.claimed = true;\n            return true;\n        } else {\n            try\n                IERC20(vault.tokenAddress).transfer(\n                    msg.sender,\n                    checkpoint.tokensCount\n                )\n            returns (bool) {\n                checkpoint.claimed = true;\n                return true;\n            } catch (bytes memory) {\n                revert(\"Transfer error\");\n            }\n        }\n    }\n\n    function getUserVaults(address userAddress)\n        public\n        view\n        returns (UserLocks memory)\n    {\n        return userLocks[userAddress];\n    }\n}\n",
  "sourcePath": "/Users/kirill/Projects/Token-locker/ethereum/contracts/Locker.sol",
  "compiler": {
    "name": "solc",
    "version": "0.8.1+commit.df193b15.Emscripten.clang"
  },
  "schemaVersion": "3.4.0",
  "updatedAt": "2021-10-28T23:04:38.061Z",
  "devdoc": {
    "kind": "dev",
    "methods": {},
    "version": 1
  },
  "userdoc": {
    "kind": "user",
    "methods": {},
    "version": 1
  }
}