{
  "contractName": "Locker",
  "abi": [
    {
      "anonymous": false,
      "inputs": [
        {
          "indexed": true,
          "internalType": "address",
          "name": "previousOwner",
          "type": "address"
        },
        {
          "indexed": true,
          "internalType": "address",
          "name": "newOwner",
          "type": "address"
        }
      ],
      "name": "OwnershipTransferred",
      "type": "event"
    },
    {
      "inputs": [],
      "name": "bnbFee",
      "outputs": [
        {
          "internalType": "uint256",
          "name": "",
          "type": "uint256"
        }
      ],
      "stateMutability": "view",
      "type": "function",
      "constant": true
    },
    {
      "inputs": [],
      "name": "lpFeePercent",
      "outputs": [
        {
          "internalType": "uint256",
          "name": "",
          "type": "uint256"
        }
      ],
      "stateMutability": "view",
      "type": "function",
      "constant": true
    },
    {
      "inputs": [],
      "name": "owner",
      "outputs": [
        {
          "internalType": "address",
          "name": "",
          "type": "address"
        }
      ],
      "stateMutability": "view",
      "type": "function",
      "constant": true
    },
    {
      "inputs": [],
      "name": "renounceOwnership",
      "outputs": [],
      "stateMutability": "nonpayable",
      "type": "function"
    },
    {
      "inputs": [
        {
          "internalType": "address",
          "name": "",
          "type": "address"
        }
      ],
      "name": "tokensFees",
      "outputs": [
        {
          "internalType": "uint256",
          "name": "",
          "type": "uint256"
        }
      ],
      "stateMutability": "view",
      "type": "function",
      "constant": true
    },
    {
      "inputs": [],
      "name": "totalBnbFees",
      "outputs": [
        {
          "internalType": "uint256",
          "name": "",
          "type": "uint256"
        }
      ],
      "stateMutability": "view",
      "type": "function",
      "constant": true
    },
    {
      "inputs": [
        {
          "internalType": "address",
          "name": "newOwner",
          "type": "address"
        }
      ],
      "name": "transferOwnership",
      "outputs": [],
      "stateMutability": "nonpayable",
      "type": "function"
    },
    {
      "inputs": [
        {
          "internalType": "uint256",
          "name": "targetTimestamp",
          "type": "uint256"
        },
        {
          "internalType": "address",
          "name": "tokenContract",
          "type": "address"
        },
        {
          "internalType": "uint256",
          "name": "tokenCount",
          "type": "uint256"
        }
      ],
      "name": "lock",
      "outputs": [
        {
          "internalType": "uint256",
          "name": "",
          "type": "uint256"
        }
      ],
      "stateMutability": "payable",
      "type": "function",
      "payable": true
    },
    {
      "inputs": [
        {
          "internalType": "uint256",
          "name": "targetTimestamp",
          "type": "uint256"
        }
      ],
      "name": "lockNativeCurrency",
      "outputs": [],
      "stateMutability": "payable",
      "type": "function",
      "payable": true
    },
    {
      "inputs": [
        {
          "internalType": "uint256",
          "name": "vaultId",
          "type": "uint256"
        }
      ],
      "name": "claimByVaultId",
      "outputs": [
        {
          "internalType": "bool",
          "name": "",
          "type": "bool"
        }
      ],
      "stateMutability": "payable",
      "type": "function",
      "payable": true
    },
    {
      "inputs": [
        {
          "internalType": "address",
          "name": "userAddress",
          "type": "address"
        }
      ],
      "name": "getUserVaults",
      "outputs": [
        {
          "components": [
            {
              "components": [
                {
                  "internalType": "address",
                  "name": "tokenAddress",
                  "type": "address"
                },
                {
                  "internalType": "bool",
                  "name": "nativeToken",
                  "type": "bool"
                },
                {
                  "components": [
                    {
                      "internalType": "uint256",
                      "name": "tokensCount",
                      "type": "uint256"
                    },
                    {
                      "internalType": "uint256",
                      "name": "releaseTargetTimestamp",
                      "type": "uint256"
                    },
                    {
                      "internalType": "bool",
                      "name": "claimed",
                      "type": "bool"
                    }
                  ],
                  "internalType": "struct Locker.ReleaseCheckpoint[]",
                  "name": "checkpoints",
                  "type": "tuple[]"
                }
              ],
              "internalType": "struct Locker.VestedTokenVault[]",
              "name": "userVaults",
              "type": "tuple[]"
            }
          ],
          "internalType": "struct Locker.UserLocks",
          "name": "",
          "type": "tuple"
        }
      ],
      "stateMutability": "view",
      "type": "function",
      "constant": true
    },
    {
      "inputs": [
        {
          "internalType": "address payable",
          "name": "withdrawalAddress",
          "type": "address"
        }
      ],
      "name": "withdrawFees",
      "outputs": [],
      "stateMutability": "nonpayable",
      "type": "function"
    },
    {
      "inputs": [
        {
          "internalType": "uint256",
          "name": "fee",
          "type": "uint256"
        }
      ],
      "name": "setBnbFee",
      "outputs": [],
      "stateMutability": "nonpayable",
      "type": "function"
    },
    {
      "inputs": [
        {
          "internalType": "uint256",
          "name": "percent",
          "type": "uint256"
        }
      ],
      "name": "setLpFee",
      "outputs": [],
      "stateMutability": "nonpayable",
      "type": "function"
    }
  ],
  "bytecode": "0x608060405266b1a2bc2ec50000600155600060025560236003553480156200002657600080fd5b50620000476200003b6200004d60201b60201c565b6200005560201b60201c565b62000119565b600033905090565b60008060009054906101000a900473ffffffffffffffffffffffffffffffffffffffff169050816000806101000a81548173ffffffffffffffffffffffffffffffffffffffff021916908373ffffffffffffffffffffffffffffffffffffffff1602179055508173ffffffffffffffffffffffffffffffffffffffff168173ffffffffffffffffffffffffffffffffffffffff167f8be0079c531659141344cd1fd0a4f28419497f9722a3daafe3b4186f6b6457e060405160405180910390a35050565b6128af80620001296000396000f3fe6080604052600436106100dd5760003560e01c8063ae3ff3dd1161007f578063d4dbe3ef11610059578063d4dbe3ef14610283578063e7f3c69c146102ae578063efc17415146102eb578063f2fde38b14610316576100dd565b8063ae3ff3dd1461020c578063aefaa39714610237578063cf27cfc414610253576100dd565b8063715018a6116100bb578063715018a61461017857806384dfbfe21461018f5780638a47446c146101b85780638da5cb5b146101e1576100dd565b80630cff87f1146100e2578063164e68de1461011f5780631e5e285c14610148575b600080fd5b3480156100ee57600080fd5b5061010960048036038101906101049190611b73565b61033f565b60405161011691906122d2565b60405180910390f35b34801561012b57600080fd5b5061014660048036038101906101419190611b9c565b610357565b005b610162600480360381019061015d9190611bee565b6106e7565b60405161016f91906120f5565b60405180910390f35b34801561018457600080fd5b5061018d610ac3565b005b34801561019b57600080fd5b506101b660048036038101906101b19190611bee565b610b4b565b005b3480156101c457600080fd5b506101df60048036038101906101da9190611bee565b610c14565b005b3480156101ed57600080fd5b506101f6610cdd565b6040516102039190612051565b60405180910390f35b34801561021857600080fd5b50610221610d06565b60405161022e91906122d2565b60405180910390f35b610251600480360381019061024c9190611bee565b610d0c565b005b61026d60048036038101906102689190611c17565b610fd6565b60405161027a91906122d2565b60405180910390f35b34801561028f57600080fd5b50610298611686565b6040516102a591906122d2565b60405180910390f35b3480156102ba57600080fd5b506102d560048036038101906102d09190611b73565b61168c565b6040516102e291906122b0565b60405180910390f35b3480156102f757600080fd5b50610300611843565b60405161030d91906122d2565b60405180910390f35b34801561032257600080fd5b5061033d60048036038101906103389190611b73565b611849565b005b60066020528060005260406000206000915090505481565b61035f611941565b73ffffffffffffffffffffffffffffffffffffffff1661037d610cdd565b73ffffffffffffffffffffffffffffffffffffffff16146103d3576040517f08c379a00000000000000000000000000000000000000000000000000000000081526004016103ca90612210565b60405180910390fd5b60006002541115610430578073ffffffffffffffffffffffffffffffffffffffff166108fc6002549081150290604051600060405180830381858888f19350505050158015610426573d6000803e3d6000fd5b5060006002819055505b6000600190505b600580549050811161065d5760006005826005805490506104589190612451565b8154811061048f577f4e487b7100000000000000000000000000000000000000000000000000000000600052603260045260246000fd5b9060005260206000200160009054906101000a900473ffffffffffffffffffffffffffffffffffffffff1690506000600660008373ffffffffffffffffffffffffffffffffffffffff1673ffffffffffffffffffffffffffffffffffffffff1681526020019081526020016000205490506000811115610598578173ffffffffffffffffffffffffffffffffffffffff1663a9059cbb85836040518363ffffffff1660e01b815260040161054492919061206c565b602060405180830381600087803b15801561055e57600080fd5b505af1158015610572573d6000803e3d6000fd5b505050506040513d601f19601f820116820180604052508101906105969190611bc5565b505b600660008373ffffffffffffffffffffffffffffffffffffffff1673ffffffffffffffffffffffffffffffffffffffff168152602001908152602001600020600090556005805480610613577f4e487b7100000000000000000000000000000000000000000000000000000000600052603160045260246000fd5b6001900381819060005260206000200160006101000a81549073ffffffffffffffffffffffffffffffffffffffff021916905590555050808061065590612515565b915050610437565b50600067ffffffffffffffff81111561069f577f4e487b7100000000000000000000000000000000000000000000000000000000600052604160045260246000fd5b6040519080825280602002602001820160405280156106cd5781602001602082028036833780820191505090505b50600590805190602001906106e3929190611a65565b5050565b60008082101561072c576040517f08c379a000000000000000000000000000000000000000000000000000000000815260040161072390612170565b60405180910390fd5b6000600460003373ffffffffffffffffffffffffffffffffffffffff1673ffffffffffffffffffffffffffffffffffffffff16815260200190815260200160002060000183815481106107a8577f4e487b7100000000000000000000000000000000000000000000000000000000600052603260045260246000fd5b906000526020600020906002020190506000816001016000815481106107f7577f4e487b7100000000000000000000000000000000000000000000000000000000600052603260045260246000fd5b90600052602060002090600302019050600015158160020160009054906101000a900460ff1615151461085f576040517f08c379a0000000000000000000000000000000000000000000000000000000008152600401610856906121f0565b60405180910390fd5b42816001015411156108a6576040517f08c379a000000000000000000000000000000000000000000000000000000000815260040161089d90612190565b60405180910390fd5b8160000160149054906101000a900460ff161561097a573373ffffffffffffffffffffffffffffffffffffffff166108fc83600101600081548110610914577f4e487b7100000000000000000000000000000000000000000000000000000000600052603260045260246000fd5b9060005260206000209060030201600001549081150290604051600060405180830381858888f19350505050158015610951573d6000803e3d6000fd5b5060018160020160006101000a81548160ff021916908315150217905550600192505050610abe565b8160000160009054906101000a900473ffffffffffffffffffffffffffffffffffffffff1673ffffffffffffffffffffffffffffffffffffffff1663a9059cbb3383600001546040518363ffffffff1660e01b81526004016109dd9291906120cc565b602060405180830381600087803b1580156109f757600080fd5b505af1925050508015610a2857506040513d601f19601f82011682018060405250810190610a259190611bc5565b60015b610a99573d8060008114610a58576040519150601f19603f3d011682016040523d82523d6000602084013e610a5d565b606091505b506040517f08c379a0000000000000000000000000000000000000000000000000000000008152600401610a9090612130565b60405180910390fd5b60018260020160006101000a81548160ff021916908315150217905550600193505050505b919050565b610acb611941565b73ffffffffffffffffffffffffffffffffffffffff16610ae9610cdd565b73ffffffffffffffffffffffffffffffffffffffff1614610b3f576040517f08c379a0000000000000000000000000000000000000000000000000000000008152600401610b3690612210565b60405180910390fd5b610b496000611949565b565b610b53611941565b73ffffffffffffffffffffffffffffffffffffffff16610b71610cdd565b73ffffffffffffffffffffffffffffffffffffffff1614610bc7576040517f08c379a0000000000000000000000000000000000000000000000000000000008152600401610bbe90612210565b60405180910390fd5b60008111610c0a576040517f08c379a0000000000000000000000000000000000000000000000000000000008152600401610c01906121d0565b60405180910390fd5b8060038190555050565b610c1c611941565b73ffffffffffffffffffffffffffffffffffffffff16610c3a610cdd565b73ffffffffffffffffffffffffffffffffffffffff1614610c90576040517f08c379a0000000000000000000000000000000000000000000000000000000008152600401610c8790612210565b60405180910390fd5b60008111610cd3576040517f08c379a0000000000000000000000000000000000000000000000000000000008152600401610cca90612250565b60405180910390fd5b8060018190555050565b60008060009054906101000a900473ffffffffffffffffffffffffffffffffffffffff16905090565b60025481565b428111610d4e576040517f08c379a0000000000000000000000000000000000000000000000000000000008152600401610d4590612270565b60405180910390fd5b600460003373ffffffffffffffffffffffffffffffffffffffff1673ffffffffffffffffffffffffffffffffffffffff1681526020019081526020016000206000016001816001815401808255809150500390600052602060002090505060006001600460003373ffffffffffffffffffffffffffffffffffffffff1673ffffffffffffffffffffffffffffffffffffffff16815260200190815260200160002060000180549050610e009190612451565b9050600460003373ffffffffffffffffffffffffffffffffffffffff1673ffffffffffffffffffffffffffffffffffffffff1681526020019081526020016000206000018181548110610e7c577f4e487b7100000000000000000000000000000000000000000000000000000000600052603260045260246000fd5b9060005260206000209060020201600101600181600181540180825580915050039060005260206000209050506000600460003373ffffffffffffffffffffffffffffffffffffffff1673ffffffffffffffffffffffffffffffffffffffff1681526020019081526020016000206000018281548110610f25577f4e487b7100000000000000000000000000000000000000000000000000000000600052603260045260246000fd5b90600052602060002090600202019050600081600101600081548110610f74577f4e487b7100000000000000000000000000000000000000000000000000000000600052603260045260246000fd5b9060005260206000209060030201905060018260000160146101000a81548160ff02191690831515021790555034816000018190555083816001018190555060008160020160006101000a81548160ff02191690831515021790555050505050565b600042841161101a576040517f08c379a000000000000000000000000000000000000000000000000000000000815260040161101190612270565b60405180910390fd5b6000821161105d576040517f08c379a000000000000000000000000000000000000000000000000000000000815260040161105490612290565b60405180910390fd5b600073ffffffffffffffffffffffffffffffffffffffff168373ffffffffffffffffffffffffffffffffffffffff1614156110cd576040517f08c379a00000000000000000000000000000000000000000000000000000000081526004016110c4906121b0565b60405180910390fd5b600154341015611112576040517f08c379a000000000000000000000000000000000000000000000000000000000815260040161110990612110565b60405180910390fd5b600460003373ffffffffffffffffffffffffffffffffffffffff1673ffffffffffffffffffffffffffffffffffffffff1681526020019081526020016000206000016001816001815401808255809150500390600052602060002090505060006001600460003373ffffffffffffffffffffffffffffffffffffffff1673ffffffffffffffffffffffffffffffffffffffff168152602001908152602001600020600001805490506111c49190612451565b9050600460003373ffffffffffffffffffffffffffffffffffffffff1673ffffffffffffffffffffffffffffffffffffffff1681526020019081526020016000206000018181548110611240577f4e487b7100000000000000000000000000000000000000000000000000000000600052603260045260246000fd5b9060005260206000209060020201600101600181600181540180825580915050039060005260206000209050506000600460003373ffffffffffffffffffffffffffffffffffffffff1673ffffffffffffffffffffffffffffffffffffffff16815260200190815260200160002060000182815481106112e9577f4e487b7100000000000000000000000000000000000000000000000000000000600052603260045260246000fd5b90600052602060002090600202019050600081600101600081548110611338577f4e487b7100000000000000000000000000000000000000000000000000000000600052603260045260246000fd5b90600052602060002090600302019050600061137361271061136560035489611a0d90919063ffffffff16565b611a2390919063ffffffff16565b9050600061138a8288611a3990919063ffffffff16565b9050878460000160006101000a81548173ffffffffffffffffffffffffffffffffffffffff021916908373ffffffffffffffffffffffffffffffffffffffff16021790555060008460000160146101000a81548160ff02191690831515021790555080836000018190555088836001018190555060008360020160006101000a81548160ff0219169083151502179055508773ffffffffffffffffffffffffffffffffffffffff166323b872dd33308a6040518463ffffffff1660e01b815260040161145893929190612095565b602060405180830381600087803b15801561147257600080fd5b505af19250505080156114a357506040513d601f19601f820116820180604052508101906114a09190611bc5565b60015b611514573d80600081146114d3576040519150601f19603f3d011682016040523d82523d6000602084013e6114d8565b606091505b506040517f08c379a000000000000000000000000000000000000000000000000000000000815260040161150b90612230565b60405180910390fd5b60008990506000600660008373ffffffffffffffffffffffffffffffffffffffff1673ffffffffffffffffffffffffffffffffffffffff1681526020019081526020016000205414156115c5576005819080600181540180825580915050600190039060005260206000200160009091909190916101000a81548173ffffffffffffffffffffffffffffffffffffffff021916908373ffffffffffffffffffffffffffffffffffffffff1602179055505b61161784600660008473ffffffffffffffffffffffffffffffffffffffff1673ffffffffffffffffffffffffffffffffffffffff16815260200190815260200160002054611a4f90919063ffffffff16565b600660008373ffffffffffffffffffffffffffffffffffffffff1673ffffffffffffffffffffffffffffffffffffffff1681526020019081526020016000208190555061166f34600254611a4f90919063ffffffff16565b600281905550869750505050505050509392505050565b60035481565b611694611aef565b600460008373ffffffffffffffffffffffffffffffffffffffff1673ffffffffffffffffffffffffffffffffffffffff16815260200190815260200160002060405180602001604052908160008201805480602002602001604051908101604052809291908181526020016000905b8282101561183457838290600052602060002090600202016040518060600160405290816000820160009054906101000a900473ffffffffffffffffffffffffffffffffffffffff1673ffffffffffffffffffffffffffffffffffffffff1673ffffffffffffffffffffffffffffffffffffffff1681526020016000820160149054906101000a900460ff1615151515815260200160018201805480602002602001604051908101604052809291908181526020016000905b8282101561181d578382906000526020600020906003020160405180606001604052908160008201548152602001600182015481526020016002820160009054906101000a900460ff161515151581525050815260200190600101906117bc565b505050508152505081526020019060010190611703565b50505050815250509050919050565b60015481565b611851611941565b73ffffffffffffffffffffffffffffffffffffffff1661186f610cdd565b73ffffffffffffffffffffffffffffffffffffffff16146118c5576040517f08c379a00000000000000000000000000000000000000000000000000000000081526004016118bc90612210565b60405180910390fd5b600073ffffffffffffffffffffffffffffffffffffffff168173ffffffffffffffffffffffffffffffffffffffff161415611935576040517f08c379a000000000000000000000000000000000000000000000000000000000815260040161192c90612150565b60405180910390fd5b61193e81611949565b50565b600033905090565b60008060009054906101000a900473ffffffffffffffffffffffffffffffffffffffff169050816000806101000a81548173ffffffffffffffffffffffffffffffffffffffff021916908373ffffffffffffffffffffffffffffffffffffffff1602179055508173ffffffffffffffffffffffffffffffffffffffff168173ffffffffffffffffffffffffffffffffffffffff167f8be0079c531659141344cd1fd0a4f28419497f9722a3daafe3b4186f6b6457e060405160405180910390a35050565b60008183611a1b91906123f7565b905092915050565b60008183611a3191906123c6565b905092915050565b60008183611a479190612451565b905092915050565b60008183611a5d9190612370565b905092915050565b828054828255906000526020600020908101928215611ade579160200282015b82811115611add5782518260006101000a81548173ffffffffffffffffffffffffffffffffffffffff021916908373ffffffffffffffffffffffffffffffffffffffff16021790555091602001919060010190611a85565b5b509050611aeb9190611b02565b5090565b6040518060200160405280606081525090565b5b80821115611b1b576000816000905550600101611b03565b5090565b600081359050611b2e8161281d565b92915050565b600081359050611b4381612834565b92915050565b600081519050611b588161284b565b92915050565b600081359050611b6d81612862565b92915050565b600060208284031215611b8557600080fd5b6000611b9384828501611b1f565b91505092915050565b600060208284031215611bae57600080fd5b6000611bbc84828501611b34565b91505092915050565b600060208284031215611bd757600080fd5b6000611be584828501611b49565b91505092915050565b600060208284031215611c0057600080fd5b6000611c0e84828501611b5e565b91505092915050565b600080600060608486031215611c2c57600080fd5b6000611c3a86828701611b5e565b9350506020611c4b86828701611b1f565b9250506040611c5c86828701611b5e565b9150509250925092565b6000611c728383611f77565b60608301905092915050565b6000611c8a8383611fe3565b905092915050565b611c9b816124df565b82525050565b611caa81612485565b82525050565b611cb981612485565b82525050565b6000611cca8261230d565b611cd4818561233d565b9350611cdf836122ed565b8060005b83811015611d10578151611cf78882611c66565b9750611d0283612323565b925050600181019050611ce3565b5085935050505092915050565b6000611d2882612318565b611d32818561234e565b935083602082028501611d44856122fd565b8060005b85811015611d805784840389528151611d618582611c7e565b9450611d6c83612330565b925060208a01995050600181019050611d48565b50829750879550505050505092915050565b611d9b816124a9565b82525050565b611daa816124a9565b82525050565b6000611dbd60148361235f565b9150611dc8826125bc565b602082019050919050565b6000611de0600e8361235f565b9150611deb826125e5565b602082019050919050565b6000611e0360268361235f565b9150611e0e8261260e565b604082019050919050565b6000611e26601a8361235f565b9150611e318261265d565b602082019050919050565b6000611e49601f8361235f565b9150611e5482612686565b602082019050919050565b6000611e6c60168361235f565b9150611e77826126af565b602082019050919050565b6000611e8f60148361235f565b9150611e9a826126d8565b602082019050919050565b6000611eb2600f8361235f565b9150611ebd82612701565b602082019050919050565b6000611ed560208361235f565b9150611ee08261272a565b602082019050919050565b6000611ef860128361235f565b9150611f0382612753565b602082019050919050565b6000611f1b60108361235f565b9150611f268261277c565b602082019050919050565b6000611f3e60198361235f565b9150611f49826127a5565b602082019050919050565b6000611f6160238361235f565b9150611f6c826127ce565b604082019050919050565b606082016000820151611f8d6000850182612033565b506020820151611fa06020850182612033565b506040820151611fb36040850182611d92565b50505050565b60006020830160008301518482036000860152611fd68282611d1d565b9150508091505092915050565b6000606083016000830151611ffb6000860182611ca1565b50602083015161200e6020860182611d92565b50604083015184820360408601526120268282611cbf565b9150508091505092915050565b61203c816124d5565b82525050565b61204b816124d5565b82525050565b60006020820190506120666000830184611cb0565b92915050565b60006040820190506120816000830185611c92565b61208e6020830184612042565b9392505050565b60006060820190506120aa6000830186611cb0565b6120b76020830185611cb0565b6120c46040830184612042565b949350505050565b60006040820190506120e16000830185611cb0565b6120ee6020830184612042565b9392505050565b600060208201905061210a6000830184611da1565b92915050565b6000602082019050818103600083015261212981611db0565b9050919050565b6000602082019050818103600083015261214981611dd3565b9050919050565b6000602082019050818103600083015261216981611df6565b9050919050565b6000602082019050818103600083015261218981611e19565b9050919050565b600060208201905081810360008301526121a981611e3c565b9050919050565b600060208201905081810360008301526121c981611e5f565b9050919050565b600060208201905081810360008301526121e981611e82565b9050919050565b6000602082019050818103600083015261220981611ea5565b9050919050565b6000602082019050818103600083015261222981611ec8565b9050919050565b6000602082019050818103600083015261224981611eeb565b9050919050565b6000602082019050818103600083015261226981611f0e565b9050919050565b6000602082019050818103600083015261228981611f31565b9050919050565b600060208201905081810360008301526122a981611f54565b9050919050565b600060208201905081810360008301526122ca8184611fb9565b905092915050565b60006020820190506122e76000830184612042565b92915050565b6000819050602082019050919050565b6000819050602082019050919050565b600081519050919050565b600081519050919050565b6000602082019050919050565b6000602082019050919050565b600082825260208201905092915050565b600082825260208201905092915050565b600082825260208201905092915050565b600061237b826124d5565b9150612386836124d5565b9250827fffffffffffffffffffffffffffffffffffffffffffffffffffffffffffffffff038211156123bb576123ba61255e565b5b828201905092915050565b60006123d1826124d5565b91506123dc836124d5565b9250826123ec576123eb61258d565b5b828204905092915050565b6000612402826124d5565b915061240d836124d5565b9250817fffffffffffffffffffffffffffffffffffffffffffffffffffffffffffffffff04831182151516156124465761244561255e565b5b828202905092915050565b600061245c826124d5565b9150612467836124d5565b92508282101561247a5761247961255e565b5b828203905092915050565b6000612490826124b5565b9050919050565b60006124a2826124b5565b9050919050565b60008115159050919050565b600073ffffffffffffffffffffffffffffffffffffffff82169050919050565b6000819050919050565b60006124ea826124f1565b9050919050565b60006124fc82612503565b9050919050565b600061250e826124b5565b9050919050565b6000612520826124d5565b91507fffffffffffffffffffffffffffffffffffffffffffffffffffffffffffffffff8214156125535761255261255e565b5b600182019050919050565b7f4e487b7100000000000000000000000000000000000000000000000000000000600052601160045260246000fd5b7f4e487b7100000000000000000000000000000000000000000000000000000000600052601260045260246000fd5b7f424e4220666565206e6f742070726f7669646564000000000000000000000000600082015250565b7f5472616e73666572206572726f72000000000000000000000000000000000000600082015250565b7f4f776e61626c653a206e6577206f776e657220697320746865207a65726f206160008201527f6464726573730000000000000000000000000000000000000000000000000000602082015250565b7f7661756c7449642073686f756c6420626520706f736974697665000000000000600082015250565b7f43616e6e6f7420636c61696d206265666f726520746172676574206461746500600082015250565b7f546f6b656e20636f6e7472616374206973206e756c6c00000000000000000000600082015250565b7f50657263656e7420697320746f6f20736d616c6c000000000000000000000000600082015250565b7f416c726561647920636c61696d65640000000000000000000000000000000000600082015250565b7f4f776e61626c653a2063616c6c6572206973206e6f7420746865206f776e6572600082015250565b7f4e6f7420616e20455243323020746f6b656e0000000000000000000000000000600082015250565b7f46656520697320746f6f20736d616c6c00000000000000000000000000000000600082015250565b7f4461746520696e2074686520706173742073656c656374656400000000000000600082015250565b7f546f6b656e20636f756e74206d75737420626520706f736974697665206e756d60008201527f6265720000000000000000000000000000000000000000000000000000000000602082015250565b61282681612485565b811461283157600080fd5b50565b61283d81612497565b811461284857600080fd5b50565b612854816124a9565b811461285f57600080fd5b50565b61286b816124d5565b811461287657600080fd5b5056fea2646970667358221220b80cbd001306c259b8c4b313d2d4c943daa8b1bdaaaff97d40f1f9443b15c7a864736f6c63430008010033",
  "immutableReferences": {},
  "source": "// SPDX-License-Identifier: MIT\r\n\r\npragma solidity >=0.7.0 <0.9.0;\r\n\r\nimport \"@openzeppelin/contracts/token/ERC20/ERC20.sol\";\r\nimport \"@openzeppelin/contracts/utils/math/SafeMath.sol\";\r\nimport \"@openzeppelin/contracts/access/Ownable.sol\";\r\n\r\ncontract Locker is Ownable {\r\n    using SafeMath for uint256;\r\n\r\n    //CR#102 add bnbfee\r\n    uint256 public bnbFee = 50000000000000000;\r\n    uint256 public totalBnbFees = 0;\r\n\r\n    //calc fee percent\r\n    // base 10000, 0.35% = value * 35 / 10000\r\n    uint256 public lpFeePercent = 35;\r\n\r\n    struct ReleaseCheckpoint {\r\n        uint256 tokensCount;\r\n        uint256 releaseTargetTimestamp;\r\n        bool claimed;\r\n    }\r\n\r\n    struct VestedTokenVault {\r\n        address tokenAddress;\r\n        //ETH for ethereum, BNB for BSC, AVAX for AVA c-chain\r\n        bool nativeToken;\r\n        ReleaseCheckpoint[] checkpoints;\r\n    }\r\n\r\n    struct UserLocks {\r\n        VestedTokenVault[] userVaults;\r\n    }\r\n\r\n    //every user has multiple vaults: he can store any token with different release schedules.\r\n    //Token might be duplicated, e.g. \r\n    //Vault1: USDC with 6 months lock + Vault2: USDC with 12 months lock + Vault3: DAI with custom schedule\r\n    mapping(address => UserLocks) userLocks;\r\n\r\n    \r\n    //tokens fee \r\n    address[] tokenAddressesWithFees;\r\n    mapping(address => uint256) public tokensFees;\r\n\r\n    //CR#102 add bnbfee\r\n    //make method payable\r\n\r\n    function lock(\r\n        uint256 targetTimestamp,\r\n        address tokenContract,\r\n        uint256 tokenCount\r\n    ) external payable returns (uint256) {\r\n        require(targetTimestamp > block.timestamp, \"Date in the past selected\");\r\n        require(tokenCount > 0, \"Token count must be positive number\");\r\n        require(tokenContract != address(0), \"Token contract is null\");\r\n\r\n        //CR#102 add bnbfee\r\n        require(msg.value >= bnbFee, 'BNB fee not provided');\r\n\r\n        //push new element to user's vault and get it's index\r\n        userLocks[msg.sender].userVaults.push();\r\n        uint256 vaultIndex = userLocks[msg.sender].userVaults.length - 1;\r\n\r\n        //create release checkpoint to created vault\r\n        userLocks[msg.sender].userVaults[vaultIndex].checkpoints.push();\r\n\r\n        //get created user Vault by index\r\n        VestedTokenVault storage targetVault = userLocks[msg.sender].userVaults[\r\n            vaultIndex\r\n        ];\r\n\r\n        //get checkpoint, in this this case here will be only one element\r\n        ReleaseCheckpoint storage checkpoint = targetVault.checkpoints[0];\r\n\r\n\r\n       \r\n\r\n        //calc fee and lock amount\r\n        uint256 fee = tokenCount.mul(lpFeePercent).div(10000);\r\n        uint256 lockAmount = tokenCount.sub(fee);\r\n\r\n        //fill input data\r\n        targetVault.tokenAddress = tokenContract;\r\n        targetVault.nativeToken = false;\r\n\r\n        // save amount of locked token\r\n        checkpoint.tokensCount = lockAmount;\r\n\r\n        checkpoint.releaseTargetTimestamp = targetTimestamp;\r\n        checkpoint.claimed = false;\r\n\r\n        //transfer token to vault\r\n        try\r\n            IERC20(tokenContract).transferFrom(\r\n                msg.sender,\r\n                address(this),\r\n                tokenCount\r\n            )\r\n        returns (bool) {\r\n\r\n            //save the fee amount in token fee address\r\n            address _tokenAddress = tokenContract;\r\n\r\n            if (tokensFees[_tokenAddress] == 0) {\r\n                tokenAddressesWithFees.push(_tokenAddress);\r\n            }\r\n            tokensFees[_tokenAddress] = tokensFees[_tokenAddress].add(fee);\r\n            \r\n            //CR#102 add bnbfee\r\n            //Add the fee to current total fee            \r\n            totalBnbFees = totalBnbFees.add(msg.value);\r\n            \r\n            return vaultIndex;\r\n        } catch (bytes memory) {\r\n            revert(\"Not an ERC20 token\");\r\n        }\r\n    }\r\n\r\n    function lockNativeCurrency(uint256 targetTimestamp) external payable {\r\n        require(targetTimestamp > block.timestamp, \"Date in the past selected\");\r\n\r\n        //push new element to user's vault and get it's index\r\n        userLocks[msg.sender].userVaults.push();\r\n        uint256 vaultIndex = userLocks[msg.sender].userVaults.length - 1;\r\n\r\n        //create release checkpoint to created vault\r\n        userLocks[msg.sender].userVaults[vaultIndex].checkpoints.push();\r\n\r\n        //get created user Vault by index\r\n        VestedTokenVault storage targetVault = userLocks[msg.sender].userVaults[\r\n            vaultIndex\r\n        ];\r\n\r\n        //get checkpoint, in this this case here will be only one element\r\n        ReleaseCheckpoint storage checkpoint = targetVault.checkpoints[0];\r\n\r\n        targetVault.nativeToken = true;\r\n        checkpoint.tokensCount = msg.value;\r\n        checkpoint.releaseTargetTimestamp = targetTimestamp;\r\n        checkpoint.claimed = false;\r\n    }\r\n\r\n    // function lockWithLinearRelease(\r\n    //     uint256 targetBlockRelease,\r\n    //     address tokenContract,\r\n    //     uint256 tokenCount,\r\n    //     int16 checkpoints\r\n    // ) public {}\r\n\r\n    // function lockWithScheduledRelease(\r\n    //     address tokenContract,\r\n    //     bytes32[] memory checkpoints\r\n    // ) public {}\r\n\r\n    // function claimAll() public {}\r\n\r\n    // function claimToken(address token) public {}\r\n\r\n    function claimByVaultId(uint256 vaultId) external payable returns (bool) {\r\n        require(vaultId >= 0, \"vaultId should be positive\");\r\n\r\n        VestedTokenVault storage vault = userLocks[msg.sender].userVaults[\r\n            vaultId\r\n        ];\r\n        ReleaseCheckpoint storage checkpoint = vault.checkpoints[0];\r\n\r\n        require(checkpoint.claimed == false, \"Already claimed\");\r\n        require(\r\n            checkpoint.releaseTargetTimestamp <= block.timestamp,\r\n            \"Cannot claim before target date\"\r\n        );\r\n\r\n        if (vault.nativeToken) {\r\n            payable(msg.sender).transfer(\r\n                vault.checkpoints[0].tokensCount\r\n            );\r\n            checkpoint.claimed = true;\r\n            return true;\r\n        } else {\r\n            try\r\n                IERC20(vault.tokenAddress).transfer(\r\n                    msg.sender,\r\n                    checkpoint.tokensCount\r\n                )\r\n            returns (bool) {\r\n                checkpoint.claimed = true;\r\n                return true;\r\n            } catch (bytes memory) {\r\n                revert(\"Transfer error\");\r\n            }\r\n        }\r\n    }\r\n\r\n    function getUserVaults(address userAddress)\r\n        public\r\n        view\r\n        returns (UserLocks memory)\r\n    {\r\n        return userLocks[userAddress];\r\n    }\r\n\r\n\r\n    //Withdraw the fee from admin\r\n    function withdrawFees(address payable withdrawalAddress) external onlyOwner {\r\n        //CR#102 add bnbfee\r\n        //transfer fee to owner wallet\r\n        if (totalBnbFees > 0) {\r\n            withdrawalAddress.transfer(totalBnbFees);\r\n            totalBnbFees = 0;\r\n        }\r\n\r\n        for (uint i = 1; i <= tokenAddressesWithFees.length; i++) {\r\n            address tokenAddress = tokenAddressesWithFees[tokenAddressesWithFees.length - i];\r\n            uint256 amount = tokensFees[tokenAddress];\r\n            if (amount > 0) {\r\n                IERC20(tokenAddress).transfer(withdrawalAddress, amount);\r\n            }\r\n            delete tokensFees[tokenAddress];\r\n            tokenAddressesWithFees.pop();\r\n        }\r\n\r\n        tokenAddressesWithFees = new address[](0);\r\n    }\r\n    \r\n    function setBnbFee(uint256 fee) external onlyOwner {\r\n        require(fee > 0, 'Fee is too small');\r\n        bnbFee = fee;\r\n    }\r\n\r\n    function setLpFee(uint256 percent) external onlyOwner {\r\n        require(percent > 0, 'Percent is too small');\r\n        lpFeePercent = percent;\r\n    }       \r\n}\r\n",
  "sourcePath": "D:\\work\\token-locker\\ethereum\\contracts\\Locker.sol",
  "compiler": {
    "name": "solc",
    "version": "0.8.1+commit.df193b15.Emscripten.clang"
  },
  "schemaVersion": "3.4.4",
  "updatedAt": "2022-03-02T15:34:29.138Z",
  "networkType": "ethereum",
  "devdoc": {
    "kind": "dev",
    "methods": {
      "owner()": {
        "details": "Returns the address of the current owner."
      },
      "renounceOwnership()": {
        "details": "Leaves the contract without owner. It will not be possible to call `onlyOwner` functions anymore. Can only be called by the current owner. NOTE: Renouncing ownership will leave the contract without an owner, thereby removing any functionality that is only available to the owner."
      },
      "transferOwnership(address)": {
        "details": "Transfers ownership of the contract to a new account (`newOwner`). Can only be called by the current owner."
      }
    },
    "version": 1
  },
  "userdoc": {
    "kind": "user",
    "methods": {},
    "version": 1
  }
}