{
  "contractName": "Locker",
  "abi": [
    {
      "anonymous": false,
      "inputs": [
        {
          "indexed": true,
          "internalType": "address",
          "name": "previousOwner",
          "type": "address"
        },
        {
          "indexed": true,
          "internalType": "address",
          "name": "newOwner",
          "type": "address"
        }
      ],
      "name": "OwnershipTransferred",
      "type": "event"
    },
    {
      "inputs": [],
      "name": "bnbFee",
      "outputs": [
        {
          "internalType": "uint256",
          "name": "",
          "type": "uint256"
        }
      ],
      "stateMutability": "view",
      "type": "function",
      "constant": true
    },
    {
      "inputs": [],
      "name": "owner",
      "outputs": [
        {
          "internalType": "address",
          "name": "",
          "type": "address"
        }
      ],
      "stateMutability": "view",
      "type": "function",
      "constant": true
    },
    {
      "inputs": [],
      "name": "renounceOwnership",
      "outputs": [],
      "stateMutability": "nonpayable",
      "type": "function"
    },
    {
      "inputs": [
        {
          "internalType": "address",
          "name": "",
          "type": "address"
        }
      ],
      "name": "tokensFees",
      "outputs": [
        {
          "internalType": "uint256",
          "name": "",
          "type": "uint256"
        }
      ],
      "stateMutability": "view",
      "type": "function",
      "constant": true
    },
    {
      "inputs": [],
      "name": "totalBnbFees",
      "outputs": [
        {
          "internalType": "uint256",
          "name": "",
          "type": "uint256"
        }
      ],
      "stateMutability": "view",
      "type": "function",
      "constant": true
    },
    {
      "inputs": [
        {
          "internalType": "address",
          "name": "newOwner",
          "type": "address"
        }
      ],
      "name": "transferOwnership",
      "outputs": [],
      "stateMutability": "nonpayable",
      "type": "function"
    },
    {
      "inputs": [
        {
          "internalType": "uint256",
          "name": "targetTimestamp",
          "type": "uint256"
        },
        {
          "internalType": "address",
          "name": "tokenContract",
          "type": "address"
        },
        {
          "internalType": "uint256",
          "name": "tokenCount",
          "type": "uint256"
        }
      ],
      "name": "lock",
      "outputs": [
        {
          "internalType": "uint256",
          "name": "",
          "type": "uint256"
        }
      ],
      "stateMutability": "payable",
      "type": "function",
      "payable": true
    },
    {
      "inputs": [
        {
          "internalType": "uint256",
          "name": "targetTimestamp",
          "type": "uint256"
        }
      ],
      "name": "lockNativeCurrency",
      "outputs": [],
      "stateMutability": "payable",
      "type": "function",
      "payable": true
    },
    {
      "inputs": [
        {
          "internalType": "uint256",
          "name": "vaultId",
          "type": "uint256"
        }
      ],
      "name": "claimByVaultId",
      "outputs": [
        {
          "internalType": "bool",
          "name": "",
          "type": "bool"
        }
      ],
      "stateMutability": "payable",
      "type": "function",
      "payable": true
    },
    {
      "inputs": [
        {
          "internalType": "address",
          "name": "userAddress",
          "type": "address"
        }
      ],
      "name": "getUserVaults",
      "outputs": [
        {
          "components": [
            {
              "components": [
                {
                  "internalType": "address",
                  "name": "tokenAddress",
                  "type": "address"
                },
                {
                  "internalType": "bool",
                  "name": "nativeToken",
                  "type": "bool"
                },
                {
                  "components": [
                    {
                      "internalType": "uint256",
                      "name": "tokensCount",
                      "type": "uint256"
                    },
                    {
                      "internalType": "uint256",
                      "name": "releaseTargetTimestamp",
                      "type": "uint256"
                    },
                    {
                      "internalType": "bool",
                      "name": "claimed",
                      "type": "bool"
                    }
                  ],
                  "internalType": "struct Locker.ReleaseCheckpoint[]",
                  "name": "checkpoints",
                  "type": "tuple[]"
                }
              ],
              "internalType": "struct Locker.VestedTokenVault[]",
              "name": "userVaults",
              "type": "tuple[]"
            }
          ],
          "internalType": "struct Locker.UserLocks",
          "name": "",
          "type": "tuple"
        }
      ],
      "stateMutability": "view",
      "type": "function",
      "constant": true
    },
    {
      "inputs": [
        {
          "internalType": "address payable",
          "name": "withdrawalAddress",
          "type": "address"
        }
      ],
      "name": "withdrawFees",
      "outputs": [],
      "stateMutability": "nonpayable",
      "type": "function"
    }
  ],
  "bytecode": "0x608060405266b1a2bc2ec5000060015560006002553480156200002157600080fd5b5062000042620000366200004860201b60201c565b6200005060201b60201c565b62000114565b600033905090565b60008060009054906101000a900473ffffffffffffffffffffffffffffffffffffffff169050816000806101000a81548173ffffffffffffffffffffffffffffffffffffffff021916908373ffffffffffffffffffffffffffffffffffffffff1602179055508173ffffffffffffffffffffffffffffffffffffffff168173ffffffffffffffffffffffffffffffffffffffff167f8be0079c531659141344cd1fd0a4f28419497f9722a3daafe3b4186f6b6457e060405160405180910390a35050565b61258580620001246000396000f3fe60806040526004361061009c5760003560e01c8063ae3ff3dd11610064578063ae3ff3dd14610179578063aefaa397146101a4578063cf27cfc4146101c0578063e7f3c69c146101f0578063efc174151461022d578063f2fde38b146102585761009c565b80630cff87f1146100a1578063164e68de146100de5780631e5e285c14610107578063715018a6146101375780638da5cb5b1461014e575b600080fd5b3480156100ad57600080fd5b506100c860048036038101906100c39190611921565b610281565b6040516100d59190611ffa565b60405180910390f35b3480156100ea57600080fd5b506101056004803603810190610100919061194a565b610299565b005b610121600480360381019061011c919061199c565b610629565b60405161012e9190611e5d565b60405180910390f35b34801561014357600080fd5b5061014c610a05565b005b34801561015a57600080fd5b50610163610a8d565b6040516101709190611db9565b60405180910390f35b34801561018557600080fd5b5061018e610ab6565b60405161019b9190611ffa565b60405180910390f35b6101be60048036038101906101b9919061199c565b610abc565b005b6101da60048036038101906101d591906119c5565b610d86565b6040516101e79190611ffa565b60405180910390f35b3480156101fc57600080fd5b5061021760048036038101906102129190611921565b61143a565b6040516102249190611fd8565b60405180910390f35b34801561023957600080fd5b506102426115f1565b60405161024f9190611ffa565b60405180910390f35b34801561026457600080fd5b5061027f600480360381019061027a9190611921565b6115f7565b005b60056020528060005260406000206000915090505481565b6102a16116ef565b73ffffffffffffffffffffffffffffffffffffffff166102bf610a8d565b73ffffffffffffffffffffffffffffffffffffffff1614610315576040517f08c379a000000000000000000000000000000000000000000000000000000000815260040161030c90611f58565b60405180910390fd5b60006002541115610372578073ffffffffffffffffffffffffffffffffffffffff166108fc6002549081150290604051600060405180830381858888f19350505050158015610368573d6000803e3d6000fd5b5060006002819055505b6000600190505b600480549050811161059f57600060048260048054905061039a9190612179565b815481106103d1577f4e487b7100000000000000000000000000000000000000000000000000000000600052603260045260246000fd5b9060005260206000200160009054906101000a900473ffffffffffffffffffffffffffffffffffffffff1690506000600560008373ffffffffffffffffffffffffffffffffffffffff1673ffffffffffffffffffffffffffffffffffffffff16815260200190815260200160002054905060008111156104da578173ffffffffffffffffffffffffffffffffffffffff1663a9059cbb85836040518363ffffffff1660e01b8152600401610486929190611dd4565b602060405180830381600087803b1580156104a057600080fd5b505af11580156104b4573d6000803e3d6000fd5b505050506040513d601f19601f820116820180604052508101906104d89190611973565b505b600560008373ffffffffffffffffffffffffffffffffffffffff1673ffffffffffffffffffffffffffffffffffffffff168152602001908152602001600020600090556004805480610555577f4e487b7100000000000000000000000000000000000000000000000000000000600052603160045260246000fd5b6001900381819060005260206000200160006101000a81549073ffffffffffffffffffffffffffffffffffffffff02191690559055505080806105979061223d565b915050610379565b50600067ffffffffffffffff8111156105e1577f4e487b7100000000000000000000000000000000000000000000000000000000600052604160045260246000fd5b60405190808252806020026020018201604052801561060f5781602001602082028036833780820191505090505b5060049080519060200190610625929190611813565b5050565b60008082101561066e576040517f08c379a000000000000000000000000000000000000000000000000000000000815260040161066590611ed8565b60405180910390fd5b6000600360003373ffffffffffffffffffffffffffffffffffffffff1673ffffffffffffffffffffffffffffffffffffffff16815260200190815260200160002060000183815481106106ea577f4e487b7100000000000000000000000000000000000000000000000000000000600052603260045260246000fd5b90600052602060002090600202019050600081600101600081548110610739577f4e487b7100000000000000000000000000000000000000000000000000000000600052603260045260246000fd5b90600052602060002090600302019050600015158160020160009054906101000a900460ff161515146107a1576040517f08c379a000000000000000000000000000000000000000000000000000000000815260040161079890611f38565b60405180910390fd5b42816001015411156107e8576040517f08c379a00000000000000000000000000000000000000000000000000000000081526004016107df90611ef8565b60405180910390fd5b8160000160149054906101000a900460ff16156108bc573373ffffffffffffffffffffffffffffffffffffffff166108fc83600101600081548110610856577f4e487b7100000000000000000000000000000000000000000000000000000000600052603260045260246000fd5b9060005260206000209060030201600001549081150290604051600060405180830381858888f19350505050158015610893573d6000803e3d6000fd5b5060018160020160006101000a81548160ff021916908315150217905550600192505050610a00565b8160000160009054906101000a900473ffffffffffffffffffffffffffffffffffffffff1673ffffffffffffffffffffffffffffffffffffffff1663a9059cbb3383600001546040518363ffffffff1660e01b815260040161091f929190611e34565b602060405180830381600087803b15801561093957600080fd5b505af192505050801561096a57506040513d601f19601f820116820180604052508101906109679190611973565b60015b6109db573d806000811461099a576040519150601f19603f3d011682016040523d82523d6000602084013e61099f565b606091505b506040517f08c379a00000000000000000000000000000000000000000000000000000000081526004016109d290611e98565b60405180910390fd5b60018260020160006101000a81548160ff021916908315150217905550600193505050505b919050565b610a0d6116ef565b73ffffffffffffffffffffffffffffffffffffffff16610a2b610a8d565b73ffffffffffffffffffffffffffffffffffffffff1614610a81576040517f08c379a0000000000000000000000000000000000000000000000000000000008152600401610a7890611f58565b60405180910390fd5b610a8b60006116f7565b565b60008060009054906101000a900473ffffffffffffffffffffffffffffffffffffffff16905090565b60025481565b428111610afe576040517f08c379a0000000000000000000000000000000000000000000000000000000008152600401610af590611f98565b60405180910390fd5b600360003373ffffffffffffffffffffffffffffffffffffffff1673ffffffffffffffffffffffffffffffffffffffff1681526020019081526020016000206000016001816001815401808255809150500390600052602060002090505060006001600360003373ffffffffffffffffffffffffffffffffffffffff1673ffffffffffffffffffffffffffffffffffffffff16815260200190815260200160002060000180549050610bb09190612179565b9050600360003373ffffffffffffffffffffffffffffffffffffffff1673ffffffffffffffffffffffffffffffffffffffff1681526020019081526020016000206000018181548110610c2c577f4e487b7100000000000000000000000000000000000000000000000000000000600052603260045260246000fd5b9060005260206000209060020201600101600181600181540180825580915050039060005260206000209050506000600360003373ffffffffffffffffffffffffffffffffffffffff1673ffffffffffffffffffffffffffffffffffffffff1681526020019081526020016000206000018281548110610cd5577f4e487b7100000000000000000000000000000000000000000000000000000000600052603260045260246000fd5b90600052602060002090600202019050600081600101600081548110610d24577f4e487b7100000000000000000000000000000000000000000000000000000000600052603260045260246000fd5b9060005260206000209060030201905060018260000160146101000a81548160ff02191690831515021790555034816000018190555083816001018190555060008160020160006101000a81548160ff02191690831515021790555050505050565b6000428411610dca576040517f08c379a0000000000000000000000000000000000000000000000000000000008152600401610dc190611f98565b60405180910390fd5b60008211610e0d576040517f08c379a0000000000000000000000000000000000000000000000000000000008152600401610e0490611fb8565b60405180910390fd5b600073ffffffffffffffffffffffffffffffffffffffff168373ffffffffffffffffffffffffffffffffffffffff161415610e7d576040517f08c379a0000000000000000000000000000000000000000000000000000000008152600401610e7490611f18565b60405180910390fd5b6001543411610ec1576040517f08c379a0000000000000000000000000000000000000000000000000000000008152600401610eb890611e78565b60405180910390fd5b600360003373ffffffffffffffffffffffffffffffffffffffff1673ffffffffffffffffffffffffffffffffffffffff1681526020019081526020016000206000016001816001815401808255809150500390600052602060002090505060006001600360003373ffffffffffffffffffffffffffffffffffffffff1673ffffffffffffffffffffffffffffffffffffffff16815260200190815260200160002060000180549050610f739190612179565b9050600360003373ffffffffffffffffffffffffffffffffffffffff1673ffffffffffffffffffffffffffffffffffffffff1681526020019081526020016000206000018181548110610fef577f4e487b7100000000000000000000000000000000000000000000000000000000600052603260045260246000fd5b9060005260206000209060020201600101600181600181540180825580915050039060005260206000209050506000600360003373ffffffffffffffffffffffffffffffffffffffff1673ffffffffffffffffffffffffffffffffffffffff1681526020019081526020016000206000018281548110611098577f4e487b7100000000000000000000000000000000000000000000000000000000600052603260045260246000fd5b906000526020600020906002020190506000816001016000815481106110e7577f4e487b7100000000000000000000000000000000000000000000000000000000600052603260045260246000fd5b906000526020600020906003020190506000602390506000611126612710611118848a6117bb90919063ffffffff16565b6117d190919063ffffffff16565b9050600061113d82896117e790919063ffffffff16565b9050888560000160006101000a81548173ffffffffffffffffffffffffffffffffffffffff021916908373ffffffffffffffffffffffffffffffffffffffff16021790555060008560000160146101000a81548160ff02191690831515021790555080846000018190555089846001018190555060008460020160006101000a81548160ff0219169083151502179055508873ffffffffffffffffffffffffffffffffffffffff166323b872dd33308b6040518463ffffffff1660e01b815260040161120b93929190611dfd565b602060405180830381600087803b15801561122557600080fd5b505af192505050801561125657506040513d601f19601f820116820180604052508101906112539190611973565b60015b6112c7573d8060008114611286576040519150601f19603f3d011682016040523d82523d6000602084013e61128b565b606091505b506040517f08c379a00000000000000000000000000000000000000000000000000000000081526004016112be90611f78565b60405180910390fd5b60008a90506000600560008373ffffffffffffffffffffffffffffffffffffffff1673ffffffffffffffffffffffffffffffffffffffff168152602001908152602001600020541415611378576004819080600181540180825580915050600190039060005260206000200160009091909190916101000a81548173ffffffffffffffffffffffffffffffffffffffff021916908373ffffffffffffffffffffffffffffffffffffffff1602179055505b6113ca84600560008473ffffffffffffffffffffffffffffffffffffffff1673ffffffffffffffffffffffffffffffffffffffff168152602001908152602001600020546117fd90919063ffffffff16565b600560008373ffffffffffffffffffffffffffffffffffffffff1673ffffffffffffffffffffffffffffffffffffffff16815260200190815260200160002081905550611422346002546117fd90919063ffffffff16565b60028190555087985050505050505050509392505050565b61144261189d565b600360008373ffffffffffffffffffffffffffffffffffffffff1673ffffffffffffffffffffffffffffffffffffffff16815260200190815260200160002060405180602001604052908160008201805480602002602001604051908101604052809291908181526020016000905b828210156115e257838290600052602060002090600202016040518060600160405290816000820160009054906101000a900473ffffffffffffffffffffffffffffffffffffffff1673ffffffffffffffffffffffffffffffffffffffff1673ffffffffffffffffffffffffffffffffffffffff1681526020016000820160149054906101000a900460ff1615151515815260200160018201805480602002602001604051908101604052809291908181526020016000905b828210156115cb578382906000526020600020906003020160405180606001604052908160008201548152602001600182015481526020016002820160009054906101000a900460ff1615151515815250508152602001906001019061156a565b5050505081525050815260200190600101906114b1565b50505050815250509050919050565b60015481565b6115ff6116ef565b73ffffffffffffffffffffffffffffffffffffffff1661161d610a8d565b73ffffffffffffffffffffffffffffffffffffffff1614611673576040517f08c379a000000000000000000000000000000000000000000000000000000000815260040161166a90611f58565b60405180910390fd5b600073ffffffffffffffffffffffffffffffffffffffff168173ffffffffffffffffffffffffffffffffffffffff1614156116e3576040517f08c379a00000000000000000000000000000000000000000000000000000000081526004016116da90611eb8565b60405180910390fd5b6116ec816116f7565b50565b600033905090565b60008060009054906101000a900473ffffffffffffffffffffffffffffffffffffffff169050816000806101000a81548173ffffffffffffffffffffffffffffffffffffffff021916908373ffffffffffffffffffffffffffffffffffffffff1602179055508173ffffffffffffffffffffffffffffffffffffffff168173ffffffffffffffffffffffffffffffffffffffff167f8be0079c531659141344cd1fd0a4f28419497f9722a3daafe3b4186f6b6457e060405160405180910390a35050565b600081836117c9919061211f565b905092915050565b600081836117df91906120ee565b905092915050565b600081836117f59190612179565b905092915050565b6000818361180b9190612098565b905092915050565b82805482825590600052602060002090810192821561188c579160200282015b8281111561188b5782518260006101000a81548173ffffffffffffffffffffffffffffffffffffffff021916908373ffffffffffffffffffffffffffffffffffffffff16021790555091602001919060010190611833565b5b50905061189991906118b0565b5090565b6040518060200160405280606081525090565b5b808211156118c95760008160009055506001016118b1565b5090565b6000813590506118dc816124f3565b92915050565b6000813590506118f18161250a565b92915050565b60008151905061190681612521565b92915050565b60008135905061191b81612538565b92915050565b60006020828403121561193357600080fd5b6000611941848285016118cd565b91505092915050565b60006020828403121561195c57600080fd5b600061196a848285016118e2565b91505092915050565b60006020828403121561198557600080fd5b6000611993848285016118f7565b91505092915050565b6000602082840312156119ae57600080fd5b60006119bc8482850161190c565b91505092915050565b6000806000606084860312156119da57600080fd5b60006119e88682870161190c565b93505060206119f9868287016118cd565b9250506040611a0a8682870161190c565b9150509250925092565b6000611a208383611cdf565b60608301905092915050565b6000611a388383611d4b565b905092915050565b611a4981612207565b82525050565b611a58816121ad565b82525050565b611a67816121ad565b82525050565b6000611a7882612035565b611a828185612065565b9350611a8d83612015565b8060005b83811015611abe578151611aa58882611a14565b9750611ab08361204b565b925050600181019050611a91565b5085935050505092915050565b6000611ad682612040565b611ae08185612076565b935083602082028501611af285612025565b8060005b85811015611b2e5784840389528151611b0f8582611a2c565b9450611b1a83612058565b925060208a01995050600181019050611af6565b50829750879550505050505092915050565b611b49816121d1565b82525050565b611b58816121d1565b82525050565b6000611b6b601483612087565b9150611b76826122e4565b602082019050919050565b6000611b8e600e83612087565b9150611b998261230d565b602082019050919050565b6000611bb1602683612087565b9150611bbc82612336565b604082019050919050565b6000611bd4601a83612087565b9150611bdf82612385565b602082019050919050565b6000611bf7601f83612087565b9150611c02826123ae565b602082019050919050565b6000611c1a601683612087565b9150611c25826123d7565b602082019050919050565b6000611c3d600f83612087565b9150611c4882612400565b602082019050919050565b6000611c60602083612087565b9150611c6b82612429565b602082019050919050565b6000611c83601283612087565b9150611c8e82612452565b602082019050919050565b6000611ca6601983612087565b9150611cb18261247b565b602082019050919050565b6000611cc9602383612087565b9150611cd4826124a4565b604082019050919050565b606082016000820151611cf56000850182611d9b565b506020820151611d086020850182611d9b565b506040820151611d1b6040850182611b40565b50505050565b60006020830160008301518482036000860152611d3e8282611acb565b9150508091505092915050565b6000606083016000830151611d636000860182611a4f565b506020830151611d766020860182611b40565b5060408301518482036040860152611d8e8282611a6d565b9150508091505092915050565b611da4816121fd565b82525050565b611db3816121fd565b82525050565b6000602082019050611dce6000830184611a5e565b92915050565b6000604082019050611de96000830185611a40565b611df66020830184611daa565b9392505050565b6000606082019050611e126000830186611a5e565b611e1f6020830185611a5e565b611e2c6040830184611daa565b949350505050565b6000604082019050611e496000830185611a5e565b611e566020830184611daa565b9392505050565b6000602082019050611e726000830184611b4f565b92915050565b60006020820190508181036000830152611e9181611b5e565b9050919050565b60006020820190508181036000830152611eb181611b81565b9050919050565b60006020820190508181036000830152611ed181611ba4565b9050919050565b60006020820190508181036000830152611ef181611bc7565b9050919050565b60006020820190508181036000830152611f1181611bea565b9050919050565b60006020820190508181036000830152611f3181611c0d565b9050919050565b60006020820190508181036000830152611f5181611c30565b9050919050565b60006020820190508181036000830152611f7181611c53565b9050919050565b60006020820190508181036000830152611f9181611c76565b9050919050565b60006020820190508181036000830152611fb181611c99565b9050919050565b60006020820190508181036000830152611fd181611cbc565b9050919050565b60006020820190508181036000830152611ff28184611d21565b905092915050565b600060208201905061200f6000830184611daa565b92915050565b6000819050602082019050919050565b6000819050602082019050919050565b600081519050919050565b600081519050919050565b6000602082019050919050565b6000602082019050919050565b600082825260208201905092915050565b600082825260208201905092915050565b600082825260208201905092915050565b60006120a3826121fd565b91506120ae836121fd565b9250827fffffffffffffffffffffffffffffffffffffffffffffffffffffffffffffffff038211156120e3576120e2612286565b5b828201905092915050565b60006120f9826121fd565b9150612104836121fd565b925082612114576121136122b5565b5b828204905092915050565b600061212a826121fd565b9150612135836121fd565b9250817fffffffffffffffffffffffffffffffffffffffffffffffffffffffffffffffff048311821515161561216e5761216d612286565b5b828202905092915050565b6000612184826121fd565b915061218f836121fd565b9250828210156121a2576121a1612286565b5b828203905092915050565b60006121b8826121dd565b9050919050565b60006121ca826121dd565b9050919050565b60008115159050919050565b600073ffffffffffffffffffffffffffffffffffffffff82169050919050565b6000819050919050565b600061221282612219565b9050919050565b60006122248261222b565b9050919050565b6000612236826121dd565b9050919050565b6000612248826121fd565b91507fffffffffffffffffffffffffffffffffffffffffffffffffffffffffffffffff82141561227b5761227a612286565b5b600182019050919050565b7f4e487b7100000000000000000000000000000000000000000000000000000000600052601160045260246000fd5b7f4e487b7100000000000000000000000000000000000000000000000000000000600052601260045260246000fd5b7f424e4220666565206e6f742070726f7669646564000000000000000000000000600082015250565b7f5472616e73666572206572726f72000000000000000000000000000000000000600082015250565b7f4f776e61626c653a206e6577206f776e657220697320746865207a65726f206160008201527f6464726573730000000000000000000000000000000000000000000000000000602082015250565b7f7661756c7449642073686f756c6420626520706f736974697665000000000000600082015250565b7f43616e6e6f7420636c61696d206265666f726520746172676574206461746500600082015250565b7f546f6b656e20636f6e7472616374206973206e756c6c00000000000000000000600082015250565b7f416c726561647920636c61696d65640000000000000000000000000000000000600082015250565b7f4f776e61626c653a2063616c6c6572206973206e6f7420746865206f776e6572600082015250565b7f4e6f7420616e20455243323020746f6b656e0000000000000000000000000000600082015250565b7f4461746520696e2074686520706173742073656c656374656400000000000000600082015250565b7f546f6b656e20636f756e74206d75737420626520706f736974697665206e756d60008201527f6265720000000000000000000000000000000000000000000000000000000000602082015250565b6124fc816121ad565b811461250757600080fd5b50565b612513816121bf565b811461251e57600080fd5b50565b61252a816121d1565b811461253557600080fd5b50565b612541816121fd565b811461254c57600080fd5b5056fea2646970667358221220489c9997629ae992cbdf4f0dcaf75a1b9fa675eeebe1a6a96979bbf589e57a3364736f6c63430008010033",
  "immutableReferences": {},
  "source": "// SPDX-License-Identifier: MIT\r\n\r\npragma solidity >=0.7.0 <0.9.0;\r\n\r\nimport \"@openzeppelin/contracts/token/ERC20/ERC20.sol\";\r\nimport \"@openzeppelin/contracts/utils/math/SafeMath.sol\";\r\nimport \"@openzeppelin/contracts/access/Ownable.sol\";\r\n\r\ncontract Locker is Ownable {\r\n    using SafeMath for uint256;\r\n\r\n    //CR#102 add bnbfee\r\n    uint256 public bnbFee = 50000000000000000;\r\n    uint256 public totalBnbFees = 0;\r\n\r\n    struct ReleaseCheckpoint {\r\n        uint256 tokensCount;\r\n        uint256 releaseTargetTimestamp;\r\n        bool claimed;\r\n    }\r\n\r\n    struct VestedTokenVault {\r\n        address tokenAddress;\r\n        //ETH for ethereum, BNB for BSC, AVAX for AVA c-chain\r\n        bool nativeToken;\r\n        ReleaseCheckpoint[] checkpoints;\r\n    }\r\n\r\n    struct UserLocks {\r\n        VestedTokenVault[] userVaults;\r\n    }\r\n\r\n    //every user has multiple vaults: he can store any token with different release schedules.\r\n    //Token might be duplicated, e.g. \r\n    //Vault1: USDC with 6 months lock + Vault2: USDC with 12 months lock + Vault3: DAI with custom schedule\r\n    mapping(address => UserLocks) userLocks;\r\n\r\n    \r\n    //tokens fee \r\n    address[] tokenAddressesWithFees;\r\n    mapping(address => uint256) public tokensFees;\r\n\r\n    //CR#102 add bnbfee\r\n    //make method payable\r\n\r\n    function lock(\r\n        uint256 targetTimestamp,\r\n        address tokenContract,\r\n        uint256 tokenCount\r\n    ) external payable returns (uint256) {\r\n        require(targetTimestamp > block.timestamp, \"Date in the past selected\");\r\n        require(tokenCount > 0, \"Token count must be positive number\");\r\n        require(tokenContract != address(0), \"Token contract is null\");\r\n\r\n        //CR#102 add bnbfee\r\n        require(msg.value > bnbFee, 'BNB fee not provided');\r\n\r\n        //push new element to user's vault and get it's index\r\n        userLocks[msg.sender].userVaults.push();\r\n        uint256 vaultIndex = userLocks[msg.sender].userVaults.length - 1;\r\n\r\n        //create release checkpoint to created vault\r\n        userLocks[msg.sender].userVaults[vaultIndex].checkpoints.push();\r\n\r\n        //get created user Vault by index\r\n        VestedTokenVault storage targetVault = userLocks[msg.sender].userVaults[\r\n            vaultIndex\r\n        ];\r\n\r\n        //get checkpoint, in this this case here will be only one element\r\n        ReleaseCheckpoint storage checkpoint = targetVault.checkpoints[0];\r\n\r\n\r\n        //calc fee percent\r\n        // base 10000, 0.35% = value * 35 / 10000\r\n        uint256 lpFeePercent = 35;\r\n\r\n        //calc fee and lock amount\r\n        uint256 fee = tokenCount.mul(lpFeePercent).div(10000);\r\n        uint256 lockAmount = tokenCount.sub(fee);\r\n\r\n        //fill input data\r\n        targetVault.tokenAddress = tokenContract;\r\n        targetVault.nativeToken = false;\r\n\r\n        // save amount of locked token\r\n        checkpoint.tokensCount = lockAmount;\r\n\r\n        checkpoint.releaseTargetTimestamp = targetTimestamp;\r\n        checkpoint.claimed = false;\r\n\r\n        //transfer token to vault\r\n        try\r\n            IERC20(tokenContract).transferFrom(\r\n                msg.sender,\r\n                address(this),\r\n                tokenCount\r\n            )\r\n        returns (bool) {\r\n\r\n            //save the fee amount in token fee address\r\n            address _tokenAddress = tokenContract;\r\n\r\n            if (tokensFees[_tokenAddress] == 0) {\r\n                tokenAddressesWithFees.push(_tokenAddress);\r\n            }\r\n            tokensFees[_tokenAddress] = tokensFees[_tokenAddress].add(fee);\r\n            \r\n            //CR#102 add bnbfee\r\n            //Add the fee to current total fee            \r\n            totalBnbFees = totalBnbFees.add(msg.value);\r\n            \r\n            return vaultIndex;\r\n        } catch (bytes memory) {\r\n            revert(\"Not an ERC20 token\");\r\n        }\r\n    }\r\n\r\n    function lockNativeCurrency(uint256 targetTimestamp) external payable {\r\n        require(targetTimestamp > block.timestamp, \"Date in the past selected\");\r\n\r\n        //push new element to user's vault and get it's index\r\n        userLocks[msg.sender].userVaults.push();\r\n        uint256 vaultIndex = userLocks[msg.sender].userVaults.length - 1;\r\n\r\n        //create release checkpoint to created vault\r\n        userLocks[msg.sender].userVaults[vaultIndex].checkpoints.push();\r\n\r\n        //get created user Vault by index\r\n        VestedTokenVault storage targetVault = userLocks[msg.sender].userVaults[\r\n            vaultIndex\r\n        ];\r\n\r\n        //get checkpoint, in this this case here will be only one element\r\n        ReleaseCheckpoint storage checkpoint = targetVault.checkpoints[0];\r\n\r\n        targetVault.nativeToken = true;\r\n        checkpoint.tokensCount = msg.value;\r\n        checkpoint.releaseTargetTimestamp = targetTimestamp;\r\n        checkpoint.claimed = false;\r\n    }\r\n\r\n    // function lockWithLinearRelease(\r\n    //     uint256 targetBlockRelease,\r\n    //     address tokenContract,\r\n    //     uint256 tokenCount,\r\n    //     int16 checkpoints\r\n    // ) public {}\r\n\r\n    // function lockWithScheduledRelease(\r\n    //     address tokenContract,\r\n    //     bytes32[] memory checkpoints\r\n    // ) public {}\r\n\r\n    // function claimAll() public {}\r\n\r\n    // function claimToken(address token) public {}\r\n\r\n    function claimByVaultId(uint256 vaultId) external payable returns (bool) {\r\n        require(vaultId >= 0, \"vaultId should be positive\");\r\n\r\n        VestedTokenVault storage vault = userLocks[msg.sender].userVaults[\r\n            vaultId\r\n        ];\r\n        ReleaseCheckpoint storage checkpoint = vault.checkpoints[0];\r\n\r\n        require(checkpoint.claimed == false, \"Already claimed\");\r\n        require(\r\n            checkpoint.releaseTargetTimestamp <= block.timestamp,\r\n            \"Cannot claim before target date\"\r\n        );\r\n\r\n        if (vault.nativeToken) {\r\n            payable(msg.sender).transfer(\r\n                vault.checkpoints[0].tokensCount\r\n            );\r\n            checkpoint.claimed = true;\r\n            return true;\r\n        } else {\r\n            try\r\n                IERC20(vault.tokenAddress).transfer(\r\n                    msg.sender,\r\n                    checkpoint.tokensCount\r\n                )\r\n            returns (bool) {\r\n                checkpoint.claimed = true;\r\n                return true;\r\n            } catch (bytes memory) {\r\n                revert(\"Transfer error\");\r\n            }\r\n        }\r\n    }\r\n\r\n    function getUserVaults(address userAddress)\r\n        public\r\n        view\r\n        returns (UserLocks memory)\r\n    {\r\n        return userLocks[userAddress];\r\n    }\r\n\r\n\r\n    //Withdraw the fee from admin\r\n    function withdrawFees(address payable withdrawalAddress) external onlyOwner {\r\n        //CR#102 add bnbfee\r\n        //transfer fee to owner wallet\r\n        if (totalBnbFees > 0) {\r\n            withdrawalAddress.transfer(totalBnbFees);\r\n            totalBnbFees = 0;\r\n        }\r\n\r\n        for (uint i = 1; i <= tokenAddressesWithFees.length; i++) {\r\n            address tokenAddress = tokenAddressesWithFees[tokenAddressesWithFees.length - i];\r\n            uint256 amount = tokensFees[tokenAddress];\r\n            if (amount > 0) {\r\n                IERC20(tokenAddress).transfer(withdrawalAddress, amount);\r\n            }\r\n            delete tokensFees[tokenAddress];\r\n            tokenAddressesWithFees.pop();\r\n        }\r\n\r\n        tokenAddressesWithFees = new address[](0);\r\n    }    \r\n}\r\n",
  "sourcePath": "D:\\work\\token-locker\\ethereum\\contracts\\Locker.sol",
  "compiler": {
    "name": "solc",
    "version": "0.8.1+commit.df193b15.Emscripten.clang"
  },
  "schemaVersion": "3.4.4",
  "updatedAt": "2022-02-27T19:36:33.498Z",
  "networkType": "ethereum",
  "devdoc": {
    "kind": "dev",
    "methods": {
      "owner()": {
        "details": "Returns the address of the current owner."
      },
      "renounceOwnership()": {
        "details": "Leaves the contract without owner. It will not be possible to call `onlyOwner` functions anymore. Can only be called by the current owner. NOTE: Renouncing ownership will leave the contract without an owner, thereby removing any functionality that is only available to the owner."
      },
      "transferOwnership(address)": {
        "details": "Transfers ownership of the contract to a new account (`newOwner`). Can only be called by the current owner."
      }
    },
    "version": 1
  },
  "userdoc": {
    "kind": "user",
    "methods": {},
    "version": 1
  }
}