{
  "contractName": "Locker",
  "abi": [
    {
      "anonymous": false,
      "inputs": [
        {
          "indexed": true,
          "internalType": "address",
          "name": "previousOwner",
          "type": "address"
        },
        {
          "indexed": true,
          "internalType": "address",
          "name": "newOwner",
          "type": "address"
        }
      ],
      "name": "OwnershipTransferred",
      "type": "event"
    },
    {
      "inputs": [],
      "name": "owner",
      "outputs": [
        {
          "internalType": "address",
          "name": "",
          "type": "address"
        }
      ],
      "stateMutability": "view",
      "type": "function",
      "constant": true
    },
    {
      "inputs": [],
      "name": "renounceOwnership",
      "outputs": [],
      "stateMutability": "nonpayable",
      "type": "function"
    },
    {
      "inputs": [
        {
          "internalType": "address",
          "name": "",
          "type": "address"
        }
      ],
      "name": "tokensFees",
      "outputs": [
        {
          "internalType": "uint256",
          "name": "",
          "type": "uint256"
        }
      ],
      "stateMutability": "view",
      "type": "function",
      "constant": true
    },
    {
      "inputs": [
        {
          "internalType": "address",
          "name": "newOwner",
          "type": "address"
        }
      ],
      "name": "transferOwnership",
      "outputs": [],
      "stateMutability": "nonpayable",
      "type": "function"
    },
    {
      "inputs": [
        {
          "internalType": "uint256",
          "name": "targetTimestamp",
          "type": "uint256"
        },
        {
          "internalType": "address",
          "name": "tokenContract",
          "type": "address"
        },
        {
          "internalType": "uint256",
          "name": "tokenCount",
          "type": "uint256"
        }
      ],
      "name": "lock",
      "outputs": [
        {
          "internalType": "uint256",
          "name": "",
          "type": "uint256"
        }
      ],
      "stateMutability": "nonpayable",
      "type": "function"
    },
    {
      "inputs": [
        {
          "internalType": "uint256",
          "name": "targetTimestamp",
          "type": "uint256"
        }
      ],
      "name": "lockNativeCurrency",
      "outputs": [],
      "stateMutability": "payable",
      "type": "function",
      "payable": true
    },
    {
      "inputs": [
        {
          "internalType": "uint256",
          "name": "vaultId",
          "type": "uint256"
        }
      ],
      "name": "claimByVaultId",
      "outputs": [
        {
          "internalType": "bool",
          "name": "",
          "type": "bool"
        }
      ],
      "stateMutability": "payable",
      "type": "function",
      "payable": true
    },
    {
      "inputs": [
        {
          "internalType": "address",
          "name": "userAddress",
          "type": "address"
        }
      ],
      "name": "getUserVaults",
      "outputs": [
        {
          "components": [
            {
              "components": [
                {
                  "internalType": "address",
                  "name": "tokenAddress",
                  "type": "address"
                },
                {
                  "internalType": "bool",
                  "name": "nativeToken",
                  "type": "bool"
                },
                {
                  "components": [
                    {
                      "internalType": "uint256",
                      "name": "tokensCount",
                      "type": "uint256"
                    },
                    {
                      "internalType": "uint256",
                      "name": "releaseTargetTimestamp",
                      "type": "uint256"
                    },
                    {
                      "internalType": "bool",
                      "name": "claimed",
                      "type": "bool"
                    }
                  ],
                  "internalType": "struct Locker.ReleaseCheckpoint[]",
                  "name": "checkpoints",
                  "type": "tuple[]"
                }
              ],
              "internalType": "struct Locker.VestedTokenVault[]",
              "name": "userVaults",
              "type": "tuple[]"
            }
          ],
          "internalType": "struct Locker.UserLocks",
          "name": "",
          "type": "tuple"
        }
      ],
      "stateMutability": "view",
      "type": "function",
      "constant": true
    },
    {
      "inputs": [
        {
          "internalType": "address payable",
          "name": "withdrawalAddress",
          "type": "address"
        }
      ],
      "name": "withdrawFees",
      "outputs": [],
      "stateMutability": "nonpayable",
      "type": "function"
    }
  ],
  "bytecode": "0x608060405234801561001057600080fd5b5061002d61002261003260201b60201c565b61003a60201b60201c565b6100fe565b600033905090565b60008060009054906101000a900473ffffffffffffffffffffffffffffffffffffffff169050816000806101000a81548173ffffffffffffffffffffffffffffffffffffffff021916908373ffffffffffffffffffffffffffffffffffffffff1602179055508173ffffffffffffffffffffffffffffffffffffffff168173ffffffffffffffffffffffffffffffffffffffff167f8be0079c531659141344cd1fd0a4f28419497f9722a3daafe3b4186f6b6457e060405160405180910390a35050565b6123f0806200010e6000396000f3fe6080604052600436106100865760003560e01c80638da5cb5b116100595780638da5cb5b14610138578063aefaa39714610163578063cf27cfc41461017f578063e7f3c69c146101bc578063f2fde38b146101f957610086565b80630cff87f11461008b578063164e68de146100c85780631e5e285c146100f1578063715018a614610121575b600080fd5b34801561009757600080fd5b506100b260048036038101906100ad91906117f8565b610222565b6040516100bf9190611e8e565b60405180910390f35b3480156100d457600080fd5b506100ef60048036038101906100ea9190611821565b61023a565b005b61010b60048036038101906101069190611873565b61056d565b6040516101189190611d11565b60405180910390f35b34801561012d57600080fd5b50610136610949565b005b34801561014457600080fd5b5061014d6109d1565b60405161015a9190611c6d565b60405180910390f35b61017d60048036038101906101789190611873565b6109fa565b005b34801561018b57600080fd5b506101a660048036038101906101a1919061189c565b610cc3565b6040516101b39190611e8e565b60405180910390f35b3480156101c857600080fd5b506101e360048036038101906101de91906117f8565b611317565b6040516101f09190611e6c565b60405180910390f35b34801561020557600080fd5b50610220600480360381019061021b91906117f8565b6114ce565b005b60036020528060005260406000206000915090505481565b6102426115c6565b73ffffffffffffffffffffffffffffffffffffffff166102606109d1565b73ffffffffffffffffffffffffffffffffffffffff16146102b6576040517f08c379a00000000000000000000000000000000000000000000000000000000081526004016102ad90611dec565b60405180910390fd5b6000600190505b60028054905081116104e35760006002826002805490506102de919061200d565b81548110610315577f4e487b7100000000000000000000000000000000000000000000000000000000600052603260045260246000fd5b9060005260206000200160009054906101000a900473ffffffffffffffffffffffffffffffffffffffff1690506000600360008373ffffffffffffffffffffffffffffffffffffffff1673ffffffffffffffffffffffffffffffffffffffff168152602001908152602001600020549050600081111561041e578173ffffffffffffffffffffffffffffffffffffffff1663a9059cbb85836040518363ffffffff1660e01b81526004016103ca929190611c88565b602060405180830381600087803b1580156103e457600080fd5b505af11580156103f8573d6000803e3d6000fd5b505050506040513d601f19601f8201168201806040525081019061041c919061184a565b505b600360008373ffffffffffffffffffffffffffffffffffffffff1673ffffffffffffffffffffffffffffffffffffffff168152602001908152602001600020600090556002805480610499577f4e487b7100000000000000000000000000000000000000000000000000000000600052603160045260246000fd5b6001900381819060005260206000200160006101000a81549073ffffffffffffffffffffffffffffffffffffffff02191690559055505080806104db906120d1565b9150506102bd565b50600067ffffffffffffffff811115610525577f4e487b7100000000000000000000000000000000000000000000000000000000600052604160045260246000fd5b6040519080825280602002602001820160405280156105535781602001602082028036833780820191505090505b50600290805190602001906105699291906116ea565b5050565b6000808210156105b2576040517f08c379a00000000000000000000000000000000000000000000000000000000081526004016105a990611d6c565b60405180910390fd5b6000600160003373ffffffffffffffffffffffffffffffffffffffff1673ffffffffffffffffffffffffffffffffffffffff168152602001908152602001600020600001838154811061062e577f4e487b7100000000000000000000000000000000000000000000000000000000600052603260045260246000fd5b9060005260206000209060020201905060008160010160008154811061067d577f4e487b7100000000000000000000000000000000000000000000000000000000600052603260045260246000fd5b90600052602060002090600302019050600015158160020160009054906101000a900460ff161515146106e5576040517f08c379a00000000000000000000000000000000000000000000000000000000081526004016106dc90611dcc565b60405180910390fd5b428160010154111561072c576040517f08c379a000000000000000000000000000000000000000000000000000000000815260040161072390611d8c565b60405180910390fd5b8160000160149054906101000a900460ff1615610800573373ffffffffffffffffffffffffffffffffffffffff166108fc8360010160008154811061079a577f4e487b7100000000000000000000000000000000000000000000000000000000600052603260045260246000fd5b9060005260206000209060030201600001549081150290604051600060405180830381858888f193505050501580156107d7573d6000803e3d6000fd5b5060018160020160006101000a81548160ff021916908315150217905550600192505050610944565b8160000160009054906101000a900473ffffffffffffffffffffffffffffffffffffffff1673ffffffffffffffffffffffffffffffffffffffff1663a9059cbb3383600001546040518363ffffffff1660e01b8152600401610863929190611ce8565b602060405180830381600087803b15801561087d57600080fd5b505af19250505080156108ae57506040513d601f19601f820116820180604052508101906108ab919061184a565b60015b61091f573d80600081146108de576040519150601f19603f3d011682016040523d82523d6000602084013e6108e3565b606091505b506040517f08c379a000000000000000000000000000000000000000000000000000000000815260040161091690611d2c565b60405180910390fd5b60018260020160006101000a81548160ff021916908315150217905550600193505050505b919050565b6109516115c6565b73ffffffffffffffffffffffffffffffffffffffff1661096f6109d1565b73ffffffffffffffffffffffffffffffffffffffff16146109c5576040517f08c379a00000000000000000000000000000000000000000000000000000000081526004016109bc90611dec565b60405180910390fd5b6109cf60006115ce565b565b60008060009054906101000a900473ffffffffffffffffffffffffffffffffffffffff16905090565b428111610a3c576040517f08c379a0000000000000000000000000000000000000000000000000000000008152600401610a3390611e2c565b60405180910390fd5b600160003373ffffffffffffffffffffffffffffffffffffffff1673ffffffffffffffffffffffffffffffffffffffff16815260200190815260200160002060000160018160018154018082558091505003906000526020600020905050600060018060003373ffffffffffffffffffffffffffffffffffffffff1673ffffffffffffffffffffffffffffffffffffffff16815260200190815260200160002060000180549050610aed919061200d565b9050600160003373ffffffffffffffffffffffffffffffffffffffff1673ffffffffffffffffffffffffffffffffffffffff1681526020019081526020016000206000018181548110610b69577f4e487b7100000000000000000000000000000000000000000000000000000000600052603260045260246000fd5b9060005260206000209060020201600101600181600181540180825580915050039060005260206000209050506000600160003373ffffffffffffffffffffffffffffffffffffffff1673ffffffffffffffffffffffffffffffffffffffff1681526020019081526020016000206000018281548110610c12577f4e487b7100000000000000000000000000000000000000000000000000000000600052603260045260246000fd5b90600052602060002090600202019050600081600101600081548110610c61577f4e487b7100000000000000000000000000000000000000000000000000000000600052603260045260246000fd5b9060005260206000209060030201905060018260000160146101000a81548160ff02191690831515021790555034816000018190555083816001018190555060008160020160006101000a81548160ff02191690831515021790555050505050565b6000428411610d07576040517f08c379a0000000000000000000000000000000000000000000000000000000008152600401610cfe90611e2c565b60405180910390fd5b60008211610d4a576040517f08c379a0000000000000000000000000000000000000000000000000000000008152600401610d4190611e4c565b60405180910390fd5b600073ffffffffffffffffffffffffffffffffffffffff168373ffffffffffffffffffffffffffffffffffffffff161415610dba576040517f08c379a0000000000000000000000000000000000000000000000000000000008152600401610db190611dac565b60405180910390fd5b600160003373ffffffffffffffffffffffffffffffffffffffff1673ffffffffffffffffffffffffffffffffffffffff16815260200190815260200160002060000160018160018154018082558091505003906000526020600020905050600060018060003373ffffffffffffffffffffffffffffffffffffffff1673ffffffffffffffffffffffffffffffffffffffff16815260200190815260200160002060000180549050610e6b919061200d565b9050600160003373ffffffffffffffffffffffffffffffffffffffff1673ffffffffffffffffffffffffffffffffffffffff1681526020019081526020016000206000018181548110610ee7577f4e487b7100000000000000000000000000000000000000000000000000000000600052603260045260246000fd5b9060005260206000209060020201600101600181600181540180825580915050039060005260206000209050506000600160003373ffffffffffffffffffffffffffffffffffffffff1673ffffffffffffffffffffffffffffffffffffffff1681526020019081526020016000206000018281548110610f90577f4e487b7100000000000000000000000000000000000000000000000000000000600052603260045260246000fd5b90600052602060002090600202019050600081600101600081548110610fdf577f4e487b7100000000000000000000000000000000000000000000000000000000600052603260045260246000fd5b90600052602060002090600302019050600060239050600061101e612710611010848a61169290919063ffffffff16565b6116a890919063ffffffff16565b9050600061103582896116be90919063ffffffff16565b9050888560000160006101000a81548173ffffffffffffffffffffffffffffffffffffffff021916908373ffffffffffffffffffffffffffffffffffffffff16021790555060008560000160146101000a81548160ff02191690831515021790555080846000018190555089846001018190555060008460020160006101000a81548160ff0219169083151502179055508873ffffffffffffffffffffffffffffffffffffffff166323b872dd33308b6040518463ffffffff1660e01b815260040161110393929190611cb1565b602060405180830381600087803b15801561111d57600080fd5b505af192505050801561114e57506040513d601f19601f8201168201806040525081019061114b919061184a565b60015b6111bf573d806000811461117e576040519150601f19603f3d011682016040523d82523d6000602084013e611183565b606091505b506040517f08c379a00000000000000000000000000000000000000000000000000000000081526004016111b690611e0c565b60405180910390fd5b60008a90506000600360008373ffffffffffffffffffffffffffffffffffffffff1673ffffffffffffffffffffffffffffffffffffffff168152602001908152602001600020541415611270576002819080600181540180825580915050600190039060005260206000200160009091909190916101000a81548173ffffffffffffffffffffffffffffffffffffffff021916908373ffffffffffffffffffffffffffffffffffffffff1602179055505b6112c284600360008473ffffffffffffffffffffffffffffffffffffffff1673ffffffffffffffffffffffffffffffffffffffff168152602001908152602001600020546116d490919063ffffffff16565b600360008373ffffffffffffffffffffffffffffffffffffffff1673ffffffffffffffffffffffffffffffffffffffff1681526020019081526020016000208190555087985050505050505050509392505050565b61131f611774565b600160008373ffffffffffffffffffffffffffffffffffffffff1673ffffffffffffffffffffffffffffffffffffffff16815260200190815260200160002060405180602001604052908160008201805480602002602001604051908101604052809291908181526020016000905b828210156114bf57838290600052602060002090600202016040518060600160405290816000820160009054906101000a900473ffffffffffffffffffffffffffffffffffffffff1673ffffffffffffffffffffffffffffffffffffffff1673ffffffffffffffffffffffffffffffffffffffff1681526020016000820160149054906101000a900460ff1615151515815260200160018201805480602002602001604051908101604052809291908181526020016000905b828210156114a8578382906000526020600020906003020160405180606001604052908160008201548152602001600182015481526020016002820160009054906101000a900460ff16151515158152505081526020019060010190611447565b50505050815250508152602001906001019061138e565b50505050815250509050919050565b6114d66115c6565b73ffffffffffffffffffffffffffffffffffffffff166114f46109d1565b73ffffffffffffffffffffffffffffffffffffffff161461154a576040517f08c379a000000000000000000000000000000000000000000000000000000000815260040161154190611dec565b60405180910390fd5b600073ffffffffffffffffffffffffffffffffffffffff168173ffffffffffffffffffffffffffffffffffffffff1614156115ba576040517f08c379a00000000000000000000000000000000000000000000000000000000081526004016115b190611d4c565b60405180910390fd5b6115c3816115ce565b50565b600033905090565b60008060009054906101000a900473ffffffffffffffffffffffffffffffffffffffff169050816000806101000a81548173ffffffffffffffffffffffffffffffffffffffff021916908373ffffffffffffffffffffffffffffffffffffffff1602179055508173ffffffffffffffffffffffffffffffffffffffff168173ffffffffffffffffffffffffffffffffffffffff167f8be0079c531659141344cd1fd0a4f28419497f9722a3daafe3b4186f6b6457e060405160405180910390a35050565b600081836116a09190611fb3565b905092915050565b600081836116b69190611f82565b905092915050565b600081836116cc919061200d565b905092915050565b600081836116e29190611f2c565b905092915050565b828054828255906000526020600020908101928215611763579160200282015b828111156117625782518260006101000a81548173ffffffffffffffffffffffffffffffffffffffff021916908373ffffffffffffffffffffffffffffffffffffffff1602179055509160200191906001019061170a565b5b5090506117709190611787565b5090565b6040518060200160405280606081525090565b5b808211156117a0576000816000905550600101611788565b5090565b6000813590506117b38161235e565b92915050565b6000813590506117c881612375565b92915050565b6000815190506117dd8161238c565b92915050565b6000813590506117f2816123a3565b92915050565b60006020828403121561180a57600080fd5b6000611818848285016117a4565b91505092915050565b60006020828403121561183357600080fd5b6000611841848285016117b9565b91505092915050565b60006020828403121561185c57600080fd5b600061186a848285016117ce565b91505092915050565b60006020828403121561188557600080fd5b6000611893848285016117e3565b91505092915050565b6000806000606084860312156118b157600080fd5b60006118bf868287016117e3565b93505060206118d0868287016117a4565b92505060406118e1868287016117e3565b9150509250925092565b60006118f78383611b93565b60608301905092915050565b600061190f8383611bff565b905092915050565b6119208161209b565b82525050565b61192f81612041565b82525050565b61193e81612041565b82525050565b600061194f82611ec9565b6119598185611ef9565b935061196483611ea9565b8060005b8381101561199557815161197c88826118eb565b975061198783611edf565b925050600181019050611968565b5085935050505092915050565b60006119ad82611ed4565b6119b78185611f0a565b9350836020820285016119c985611eb9565b8060005b85811015611a0557848403895281516119e68582611903565b94506119f183611eec565b925060208a019950506001810190506119cd565b50829750879550505050505092915050565b611a2081612065565b82525050565b611a2f81612065565b82525050565b6000611a42600e83611f1b565b9150611a4d82612178565b602082019050919050565b6000611a65602683611f1b565b9150611a70826121a1565b604082019050919050565b6000611a88601a83611f1b565b9150611a93826121f0565b602082019050919050565b6000611aab601f83611f1b565b9150611ab682612219565b602082019050919050565b6000611ace601683611f1b565b9150611ad982612242565b602082019050919050565b6000611af1600f83611f1b565b9150611afc8261226b565b602082019050919050565b6000611b14602083611f1b565b9150611b1f82612294565b602082019050919050565b6000611b37601283611f1b565b9150611b42826122bd565b602082019050919050565b6000611b5a601983611f1b565b9150611b65826122e6565b602082019050919050565b6000611b7d602383611f1b565b9150611b888261230f565b604082019050919050565b606082016000820151611ba96000850182611c4f565b506020820151611bbc6020850182611c4f565b506040820151611bcf6040850182611a17565b50505050565b60006020830160008301518482036000860152611bf282826119a2565b9150508091505092915050565b6000606083016000830151611c176000860182611926565b506020830151611c2a6020860182611a17565b5060408301518482036040860152611c428282611944565b9150508091505092915050565b611c5881612091565b82525050565b611c6781612091565b82525050565b6000602082019050611c826000830184611935565b92915050565b6000604082019050611c9d6000830185611917565b611caa6020830184611c5e565b9392505050565b6000606082019050611cc66000830186611935565b611cd36020830185611935565b611ce06040830184611c5e565b949350505050565b6000604082019050611cfd6000830185611935565b611d0a6020830184611c5e565b9392505050565b6000602082019050611d266000830184611a26565b92915050565b60006020820190508181036000830152611d4581611a35565b9050919050565b60006020820190508181036000830152611d6581611a58565b9050919050565b60006020820190508181036000830152611d8581611a7b565b9050919050565b60006020820190508181036000830152611da581611a9e565b9050919050565b60006020820190508181036000830152611dc581611ac1565b9050919050565b60006020820190508181036000830152611de581611ae4565b9050919050565b60006020820190508181036000830152611e0581611b07565b9050919050565b60006020820190508181036000830152611e2581611b2a565b9050919050565b60006020820190508181036000830152611e4581611b4d565b9050919050565b60006020820190508181036000830152611e6581611b70565b9050919050565b60006020820190508181036000830152611e868184611bd5565b905092915050565b6000602082019050611ea36000830184611c5e565b92915050565b6000819050602082019050919050565b6000819050602082019050919050565b600081519050919050565b600081519050919050565b6000602082019050919050565b6000602082019050919050565b600082825260208201905092915050565b600082825260208201905092915050565b600082825260208201905092915050565b6000611f3782612091565b9150611f4283612091565b9250827fffffffffffffffffffffffffffffffffffffffffffffffffffffffffffffffff03821115611f7757611f7661211a565b5b828201905092915050565b6000611f8d82612091565b9150611f9883612091565b925082611fa857611fa7612149565b5b828204905092915050565b6000611fbe82612091565b9150611fc983612091565b9250817fffffffffffffffffffffffffffffffffffffffffffffffffffffffffffffffff04831182151516156120025761200161211a565b5b828202905092915050565b600061201882612091565b915061202383612091565b9250828210156120365761203561211a565b5b828203905092915050565b600061204c82612071565b9050919050565b600061205e82612071565b9050919050565b60008115159050919050565b600073ffffffffffffffffffffffffffffffffffffffff82169050919050565b6000819050919050565b60006120a6826120ad565b9050919050565b60006120b8826120bf565b9050919050565b60006120ca82612071565b9050919050565b60006120dc82612091565b91507fffffffffffffffffffffffffffffffffffffffffffffffffffffffffffffffff82141561210f5761210e61211a565b5b600182019050919050565b7f4e487b7100000000000000000000000000000000000000000000000000000000600052601160045260246000fd5b7f4e487b7100000000000000000000000000000000000000000000000000000000600052601260045260246000fd5b7f5472616e73666572206572726f72000000000000000000000000000000000000600082015250565b7f4f776e61626c653a206e6577206f776e657220697320746865207a65726f206160008201527f6464726573730000000000000000000000000000000000000000000000000000602082015250565b7f7661756c7449642073686f756c6420626520706f736974697665000000000000600082015250565b7f43616e6e6f7420636c61696d206265666f726520746172676574206461746500600082015250565b7f546f6b656e20636f6e7472616374206973206e756c6c00000000000000000000600082015250565b7f416c726561647920636c61696d65640000000000000000000000000000000000600082015250565b7f4f776e61626c653a2063616c6c6572206973206e6f7420746865206f776e6572600082015250565b7f4e6f7420616e20455243323020746f6b656e0000000000000000000000000000600082015250565b7f4461746520696e2074686520706173742073656c656374656400000000000000600082015250565b7f546f6b656e20636f756e74206d75737420626520706f736974697665206e756d60008201527f6265720000000000000000000000000000000000000000000000000000000000602082015250565b61236781612041565b811461237257600080fd5b50565b61237e81612053565b811461238957600080fd5b50565b61239581612065565b81146123a057600080fd5b50565b6123ac81612091565b81146123b757600080fd5b5056fea2646970667358221220af82ae92b4b022521b61cee85e214d19d2e87815c63b58e214dc545cc30f4d2b64736f6c63430008010033",
  "immutableReferences": {},
  "source": "// SPDX-License-Identifier: MIT\r\n\r\npragma solidity >=0.7.0 <0.9.0;\r\n\r\nimport \"@openzeppelin/contracts/token/ERC20/ERC20.sol\";\r\nimport \"@openzeppelin/contracts/utils/math/SafeMath.sol\";\r\nimport \"@openzeppelin/contracts/access/Ownable.sol\";\r\n\r\ncontract Locker is Ownable {\r\n    using SafeMath for uint256;\r\n\r\n    struct ReleaseCheckpoint {\r\n        uint256 tokensCount;\r\n        uint256 releaseTargetTimestamp;\r\n        bool claimed;\r\n    }\r\n\r\n    struct VestedTokenVault {\r\n        address tokenAddress;\r\n        //ETH for ethereum, BNB for BSC, AVAX for AVA c-chain\r\n        bool nativeToken;\r\n        ReleaseCheckpoint[] checkpoints;\r\n    }\r\n\r\n    struct UserLocks {\r\n        VestedTokenVault[] userVaults;\r\n    }\r\n\r\n    //every user has multiple vaults: he can store any token with different release schedules.\r\n    //Token might be duplicated, e.g. \r\n    //Vault1: USDC with 6 months lock + Vault2: USDC with 12 months lock + Vault3: DAI with custom schedule\r\n    mapping(address => UserLocks) userLocks;\r\n\r\n    \r\n    //tokens fee \r\n    address[] tokenAddressesWithFees;\r\n    mapping(address => uint256) public tokensFees;\r\n\r\n    function lock(\r\n        uint256 targetTimestamp,\r\n        address tokenContract,\r\n        uint256 tokenCount\r\n    ) public returns (uint256) {\r\n        require(targetTimestamp > block.timestamp, \"Date in the past selected\");\r\n        require(tokenCount > 0, \"Token count must be positive number\");\r\n        require(tokenContract != address(0), \"Token contract is null\");\r\n\r\n        //push new element to user's vault and get it's index\r\n        userLocks[msg.sender].userVaults.push();\r\n        uint256 vaultIndex = userLocks[msg.sender].userVaults.length - 1;\r\n\r\n        //create release checkpoint to created vault\r\n        userLocks[msg.sender].userVaults[vaultIndex].checkpoints.push();\r\n\r\n        //get created user Vault by index\r\n        VestedTokenVault storage targetVault = userLocks[msg.sender].userVaults[\r\n            vaultIndex\r\n        ];\r\n\r\n        //get checkpoint, in this this case here will be only one element\r\n        ReleaseCheckpoint storage checkpoint = targetVault.checkpoints[0];\r\n\r\n\r\n        //calc fee percent\r\n        // base 10000, 0.35% = value * 35 / 10000\r\n        uint256 lpFeePercent = 35;\r\n\r\n        //calc fee and lock amount\r\n        uint256 fee = tokenCount.mul(lpFeePercent).div(10000);\r\n        uint256 lockAmount = tokenCount.sub(fee);\r\n\r\n        //fill input data\r\n        targetVault.tokenAddress = tokenContract;\r\n        targetVault.nativeToken = false;\r\n\r\n        // save amount of locked token\r\n        checkpoint.tokensCount = lockAmount;\r\n\r\n        checkpoint.releaseTargetTimestamp = targetTimestamp;\r\n        checkpoint.claimed = false;\r\n\r\n        //transfer token to vault\r\n        try\r\n            IERC20(tokenContract).transferFrom(\r\n                msg.sender,\r\n                address(this),\r\n                tokenCount\r\n            )\r\n        returns (bool) {\r\n\r\n            //save the fee amount in token fee address\r\n            address _tokenAddress = tokenContract;\r\n\r\n            if (tokensFees[_tokenAddress] == 0) {\r\n                tokenAddressesWithFees.push(_tokenAddress);\r\n            }\r\n            tokensFees[_tokenAddress] = tokensFees[_tokenAddress].add(fee);\r\n\r\n            return vaultIndex;\r\n        } catch (bytes memory) {\r\n            revert(\"Not an ERC20 token\");\r\n        }\r\n    }\r\n\r\n    function lockNativeCurrency(uint256 targetTimestamp) public payable {\r\n        require(targetTimestamp > block.timestamp, \"Date in the past selected\");\r\n\r\n        //push new element to user's vault and get it's index\r\n        userLocks[msg.sender].userVaults.push();\r\n        uint256 vaultIndex = userLocks[msg.sender].userVaults.length - 1;\r\n\r\n        //create release checkpoint to created vault\r\n        userLocks[msg.sender].userVaults[vaultIndex].checkpoints.push();\r\n\r\n        //get created user Vault by index\r\n        VestedTokenVault storage targetVault = userLocks[msg.sender].userVaults[\r\n            vaultIndex\r\n        ];\r\n\r\n        //get checkpoint, in this this case here will be only one element\r\n        ReleaseCheckpoint storage checkpoint = targetVault.checkpoints[0];\r\n\r\n        targetVault.nativeToken = true;\r\n        checkpoint.tokensCount = msg.value;\r\n        checkpoint.releaseTargetTimestamp = targetTimestamp;\r\n        checkpoint.claimed = false;\r\n    }\r\n\r\n    // function lockWithLinearRelease(\r\n    //     uint256 targetBlockRelease,\r\n    //     address tokenContract,\r\n    //     uint256 tokenCount,\r\n    //     int16 checkpoints\r\n    // ) public {}\r\n\r\n    // function lockWithScheduledRelease(\r\n    //     address tokenContract,\r\n    //     bytes32[] memory checkpoints\r\n    // ) public {}\r\n\r\n    // function claimAll() public {}\r\n\r\n    // function claimToken(address token) public {}\r\n\r\n    function claimByVaultId(uint256 vaultId) public payable returns (bool) {\r\n        require(vaultId >= 0, \"vaultId should be positive\");\r\n\r\n        VestedTokenVault storage vault = userLocks[msg.sender].userVaults[\r\n            vaultId\r\n        ];\r\n        ReleaseCheckpoint storage checkpoint = vault.checkpoints[0];\r\n\r\n        require(checkpoint.claimed == false, \"Already claimed\");\r\n        require(\r\n            checkpoint.releaseTargetTimestamp <= block.timestamp,\r\n            \"Cannot claim before target date\"\r\n        );\r\n\r\n        if (vault.nativeToken) {\r\n            payable(msg.sender).transfer(\r\n                vault.checkpoints[0].tokensCount\r\n            );\r\n            checkpoint.claimed = true;\r\n            return true;\r\n        } else {\r\n            try\r\n                IERC20(vault.tokenAddress).transfer(\r\n                    msg.sender,\r\n                    checkpoint.tokensCount\r\n                )\r\n            returns (bool) {\r\n                checkpoint.claimed = true;\r\n                return true;\r\n            } catch (bytes memory) {\r\n                revert(\"Transfer error\");\r\n            }\r\n        }\r\n    }\r\n\r\n    function getUserVaults(address userAddress)\r\n        public\r\n        view\r\n        returns (UserLocks memory)\r\n    {\r\n        return userLocks[userAddress];\r\n    }\r\n\r\n\r\n    //Withdraw the fee from admin\r\n    function withdrawFees(address payable withdrawalAddress) external onlyOwner {\r\n                \r\n        for (uint i = 1; i <= tokenAddressesWithFees.length; i++) {\r\n            address tokenAddress = tokenAddressesWithFees[tokenAddressesWithFees.length - i];\r\n            uint256 amount = tokensFees[tokenAddress];\r\n            if (amount > 0) {\r\n                IERC20(tokenAddress).transfer(withdrawalAddress, amount);\r\n            }\r\n            delete tokensFees[tokenAddress];\r\n            tokenAddressesWithFees.pop();\r\n        }\r\n\r\n        tokenAddressesWithFees = new address[](0);\r\n    }    \r\n}\r\n",
  "sourcePath": "D:\\work\\token-locker\\ethereum\\contracts\\Locker.sol",
  "compiler": {
    "name": "solc",
    "version": "0.8.1+commit.df193b15.Emscripten.clang"
  },
  "schemaVersion": "3.4.4",
  "updatedAt": "2022-02-26T14:59:55.782Z",
  "networkType": "ethereum",
  "devdoc": {
    "kind": "dev",
    "methods": {
      "owner()": {
        "details": "Returns the address of the current owner."
      },
      "renounceOwnership()": {
        "details": "Leaves the contract without owner. It will not be possible to call `onlyOwner` functions anymore. Can only be called by the current owner. NOTE: Renouncing ownership will leave the contract without an owner, thereby removing any functionality that is only available to the owner."
      },
      "transferOwnership(address)": {
        "details": "Transfers ownership of the contract to a new account (`newOwner`). Can only be called by the current owner."
      }
    },
    "version": 1
  },
  "userdoc": {
    "kind": "user",
    "methods": {},
    "version": 1
  }
}